{
	"contracts/BiddingWar.sol": {
		"BiddingWar": {
			"abi": [
				{
					"inputs": [],
					"stateMutability": "nonpayable",
					"type": "constructor"
				},
				{
					"inputs": [
						{
							"internalType": "address",
							"name": "owner",
							"type": "address"
						}
					],
					"name": "OwnableInvalidOwner",
					"type": "error"
				},
				{
					"inputs": [
						{
							"internalType": "address",
							"name": "account",
							"type": "address"
						}
					],
					"name": "OwnableUnauthorizedAccount",
					"type": "error"
				},
				{
					"inputs": [],
					"name": "ReentrancyGuardReentrantCall",
					"type": "error"
				},
				{
					"anonymous": false,
					"inputs": [
						{
							"indexed": true,
							"internalType": "uint128",
							"name": "bid",
							"type": "uint128"
						},
						{
							"indexed": false,
							"internalType": "uint256",
							"name": "amount",
							"type": "uint256"
						},
						{
							"indexed": false,
							"internalType": "uint64",
							"name": "when",
							"type": "uint64"
						},
						{
							"indexed": true,
							"internalType": "address",
							"name": "user",
							"type": "address"
						}
					],
					"name": "BidEvent",
					"type": "event"
				},
				{
					"anonymous": false,
					"inputs": [
						{
							"indexed": true,
							"internalType": "address",
							"name": "previousOwner",
							"type": "address"
						},
						{
							"indexed": true,
							"internalType": "address",
							"name": "newOwner",
							"type": "address"
						}
					],
					"name": "OwnershipTransferred",
					"type": "event"
				},
				{
					"anonymous": false,
					"inputs": [
						{
							"indexed": true,
							"internalType": "uint128",
							"name": "bid",
							"type": "uint128"
						},
						{
							"indexed": false,
							"internalType": "uint256",
							"name": "highestBid",
							"type": "uint256"
						},
						{
							"indexed": false,
							"internalType": "uint256",
							"name": "winAmount",
							"type": "uint256"
						},
						{
							"indexed": false,
							"internalType": "uint64",
							"name": "when",
							"type": "uint64"
						},
						{
							"indexed": true,
							"internalType": "address",
							"name": "winner",
							"type": "address"
						}
					],
					"name": "WinEvent",
					"type": "event"
				},
				{
					"stateMutability": "payable",
					"type": "fallback"
				},
				{
					"inputs": [],
					"name": "bidCounter",
					"outputs": [
						{
							"internalType": "uint128",
							"name": "",
							"type": "uint128"
						}
					],
					"stateMutability": "view",
					"type": "function"
				},
				{
					"inputs": [
						{
							"internalType": "uint256",
							"name": "",
							"type": "uint256"
						}
					],
					"name": "bids",
					"outputs": [
						{
							"internalType": "uint256",
							"name": "amount",
							"type": "uint256"
						},
						{
							"internalType": "address",
							"name": "user",
							"type": "address"
						},
						{
							"internalType": "uint64",
							"name": "when",
							"type": "uint64"
						}
					],
					"stateMutability": "view",
					"type": "function"
				},
				{
					"inputs": [],
					"name": "commission",
					"outputs": [
						{
							"internalType": "uint256",
							"name": "",
							"type": "uint256"
						}
					],
					"stateMutability": "view",
					"type": "function"
				},
				{
					"inputs": [],
					"name": "declareResult",
					"outputs": [],
					"stateMutability": "nonpayable",
					"type": "function"
				},
				{
					"inputs": [],
					"name": "gameEndTime",
					"outputs": [
						{
							"internalType": "uint64",
							"name": "",
							"type": "uint64"
						}
					],
					"stateMutability": "view",
					"type": "function"
				},
				{
					"inputs": [],
					"name": "gameStatus",
					"outputs": [
						{
							"internalType": "bool",
							"name": "",
							"type": "bool"
						}
					],
					"stateMutability": "view",
					"type": "function"
				},
				{
					"inputs": [],
					"name": "highestBid",
					"outputs": [
						{
							"internalType": "uint256",
							"name": "",
							"type": "uint256"
						}
					],
					"stateMutability": "view",
					"type": "function"
				},
				{
					"inputs": [],
					"name": "highestBidder",
					"outputs": [
						{
							"internalType": "address",
							"name": "",
							"type": "address"
						}
					],
					"stateMutability": "view",
					"type": "function"
				},
				{
					"inputs": [],
					"name": "owner",
					"outputs": [
						{
							"internalType": "address",
							"name": "",
							"type": "address"
						}
					],
					"stateMutability": "view",
					"type": "function"
				},
				{
					"inputs": [],
					"name": "placeBid",
					"outputs": [],
					"stateMutability": "payable",
					"type": "function"
				},
				{
					"inputs": [],
					"name": "renounceOwnership",
					"outputs": [],
					"stateMutability": "nonpayable",
					"type": "function"
				},
				{
					"inputs": [
						{
							"internalType": "address",
							"name": "newOwner",
							"type": "address"
						}
					],
					"name": "transferOwnership",
					"outputs": [],
					"stateMutability": "nonpayable",
					"type": "function"
				},
				{
					"stateMutability": "payable",
					"type": "receive"
				}
			],
			"devdoc": {
				"errors": {
					"OwnableInvalidOwner(address)": [
						{
							"details": "The owner is not a valid owner account. (eg. `address(0)`)"
						}
					],
					"OwnableUnauthorizedAccount(address)": [
						{
							"details": "The caller account is not authorized to perform an operation."
						}
					],
					"ReentrancyGuardReentrantCall()": [
						{
							"details": "Unauthorized reentrant call."
						}
					]
				},
				"kind": "dev",
				"methods": {
					"owner()": {
						"details": "Returns the address of the current owner."
					},
					"renounceOwnership()": {
						"details": "Leaves the contract without owner. It will not be possible to call `onlyOwner` functions. Can only be called by the current owner. NOTE: Renouncing ownership will leave the contract without an owner, thereby disabling any functionality that is only available to the owner."
					},
					"transferOwnership(address)": {
						"details": "Transfers ownership of the contract to a new account (`newOwner`). Can only be called by the current owner."
					}
				},
				"version": 1
			},
			"evm": {
				"assembly": "    /* \"contracts/BiddingWar.sol\":313:3627  contract BiddingWar is Ownable, ReentrancyGuard {... */\n  mstore(0x40, 0x80)\n    /* \"contracts/BiddingWar.sol\":392:393  5 */\n  0x05\n    /* \"contracts/BiddingWar.sol\":367:393  uint public commission = 5 */\n  0x02\n  dup2\n  swap1\n  sstore\n    /* \"contracts/BiddingWar.sol\":399:428  uint128 public bidCounter = 0 */\n  0x03\n  dup1\n  sload\n  not(sub(shl(0x80, 0x01), 0x01))\n  and\n  swap1\n  sstore\n    /* \"contracts/BiddingWar.sol\":527:557  bool public gameStatus = false */\n  dup1\n  sload\n  not(shl(0xa0, 0xff))\n  and\n  swap1\n  sstore\n    /* \"contracts/BiddingWar.sol\":977:1039  constructor() Ownable(msg.sender) {... */\n  callvalue\n  dup1\n  iszero\n  tag_1\n  jumpi\n  0x00\n  dup1\n  revert\ntag_1:\n  pop\n    /* \"contracts/BiddingWar.sol\":999:1009  msg.sender */\n  caller\n  dup1\n    /* \"@openzeppelin/contracts/access/Ownable.sol\":1269:1364  if (initialOwner == address(0)) {... */\n  tag_6\n  jumpi\n    /* \"@openzeppelin/contracts/access/Ownable.sol\":1322:1353  OwnableInvalidOwner(address(0)) */\n  mload(0x40)\n  shl(0xe0, 0x1e4fbdf7)\n  dup2\n  mstore\n    /* \"@openzeppelin/contracts/access/Ownable.sol\":1350:1351  0 */\n  0x00\n    /* \"@openzeppelin/contracts/access/Ownable.sol\":1322:1353  OwnableInvalidOwner(address(0)) */\n  0x04\n  dup3\n  add\n    /* \"#utility.yul\":160:211   */\n  mstore\n    /* \"#utility.yul\":133:151   */\n  0x24\n  add\n    /* \"@openzeppelin/contracts/access/Ownable.sol\":1322:1353  OwnableInvalidOwner(address(0)) */\ntag_7:\n  mload(0x40)\n  dup1\n  swap2\n  sub\n  swap1\n  revert\n    /* \"@openzeppelin/contracts/access/Ownable.sol\":1269:1364  if (initialOwner == address(0)) {... */\ntag_6:\n    /* \"@openzeppelin/contracts/access/Ownable.sol\":1373:1405  _transferOwnership(initialOwner) */\n  tag_9\n    /* \"@openzeppelin/contracts/access/Ownable.sol\":1392:1404  initialOwner */\n  dup2\n    /* \"@openzeppelin/contracts/access/Ownable.sol\":1373:1391  _transferOwnership */\n  tag_10\n    /* \"@openzeppelin/contracts/access/Ownable.sol\":1373:1405  _transferOwnership(initialOwner) */\n  jump\t// in\ntag_9:\n  pop\n    /* \"@openzeppelin/contracts/utils/ReentrancyGuard.sol\":1713:1714  1 */\n  0x01\n    /* \"@openzeppelin/contracts/utils/ReentrancyGuard.sol\":1917:1938  _status = NOT_ENTERED */\n  dup1\n  sstore\n    /* \"contracts/BiddingWar.sol\":1021:1032  startGame() */\n  tag_13\n    /* \"contracts/BiddingWar.sol\":1021:1030  startGame */\n  tag_14\n    /* \"contracts/BiddingWar.sol\":1021:1032  startGame() */\n  jump\t// in\ntag_13:\n    /* \"contracts/BiddingWar.sol\":313:3627  contract BiddingWar is Ownable, ReentrancyGuard {... */\n  jump(tag_26)\n    /* \"@openzeppelin/contracts/access/Ownable.sol\":2912:3099  function _transferOwnership(address newOwner) internal virtual {... */\ntag_10:\n    /* \"@openzeppelin/contracts/access/Ownable.sol\":2985:3001  address oldOwner */\n  0x00\n    /* \"@openzeppelin/contracts/access/Ownable.sol\":3004:3010  _owner */\n  dup1\n  sload\n  sub(shl(0xa0, 0x01), 0x01)\n    /* \"@openzeppelin/contracts/access/Ownable.sol\":3020:3037  _owner = newOwner */\n  dup4\n  dup2\n  and\n  not(sub(shl(0xa0, 0x01), 0x01))\n  dup4\n  and\n  dup2\n  or\n  dup5\n  sstore\n    /* \"@openzeppelin/contracts/access/Ownable.sol\":3052:3092  OwnershipTransferred(oldOwner, newOwner) */\n  mload(0x40)\n    /* \"@openzeppelin/contracts/access/Ownable.sol\":3004:3010  _owner */\n  swap2\n  swap1\n  swap3\n  and\n  swap3\n  dup4\n  swap2\n    /* \"@openzeppelin/contracts/access/Ownable.sol\":3052:3092  OwnershipTransferred(oldOwner, newOwner) */\n  0x8be0079c531659141344cd1fd0a4f28419497f9722a3daafe3b4186f6b6457e0\n  swap2\n    /* \"@openzeppelin/contracts/access/Ownable.sol\":2985:3001  address oldOwner */\n  swap1\n    /* \"@openzeppelin/contracts/access/Ownable.sol\":3052:3092  OwnershipTransferred(oldOwner, newOwner) */\n  log3\n    /* \"@openzeppelin/contracts/access/Ownable.sol\":2975:3099  {... */\n  pop\n    /* \"@openzeppelin/contracts/access/Ownable.sol\":2912:3099  function _transferOwnership(address newOwner) internal virtual {... */\n  pop\n  jump\t// out\n    /* \"contracts/BiddingWar.sol\":1083:1459  function startGame() private {... */\ntag_14:\n    /* \"contracts/BiddingWar.sol\":1130:1141  gameEndTime */\n  sload(0x03)\n    /* \"contracts/BiddingWar.sol\":1144:1159  block.timestamp */\n  timestamp\n  shl(0x80, 0x01)\n    /* \"contracts/BiddingWar.sol\":1130:1141  gameEndTime */\n  swap1\n  swap2\n  div\n  sub(shl(0x40, 0x01), 0x01)\n  and\n    /* \"contracts/BiddingWar.sol\":1130:1159  gameEndTime < block.timestamp */\n  lt\n    /* \"contracts/BiddingWar.sol\":1122:1191  require(gameEndTime < block.timestamp, \"Last game is still running!\") */\n  tag_18\n  jumpi\n  mload(0x40)\n  shl(0xe5, 0x461bcd)\n  dup2\n  mstore\n    /* \"#utility.yul\":424:426   */\n  0x20\n    /* \"contracts/BiddingWar.sol\":1122:1191  require(gameEndTime < block.timestamp, \"Last game is still running!\") */\n  0x04\n  dup3\n  add\n    /* \"#utility.yul\":406:427   */\n  mstore\n    /* \"#utility.yul\":463:465   */\n  0x1b\n    /* \"#utility.yul\":443:461   */\n  0x24\n  dup3\n  add\n    /* \"#utility.yul\":436:466   */\n  mstore\n    /* \"#utility.yul\":502:531   */\n  0x4c6173742067616d65206973207374696c6c2072756e6e696e67210000000000\n    /* \"#utility.yul\":482:500   */\n  0x44\n  dup3\n  add\n    /* \"#utility.yul\":475:532   */\n  mstore\n    /* \"#utility.yul\":549:567   */\n  0x64\n  add\n    /* \"contracts/BiddingWar.sol\":1122:1191  require(gameEndTime < block.timestamp, \"Last game is still running!\") */\n  tag_7\n    /* \"#utility.yul\":222:573   */\n  jump\n    /* \"contracts/BiddingWar.sol\":1122:1191  require(gameEndTime < block.timestamp, \"Last game is still running!\") */\ntag_18:\n    /* \"contracts/BiddingWar.sol\":1210:1220  gameStatus */\n  sload(0x05)\n  shl(0xa0, 0x01)\n  swap1\n  div\n  0xff\n  and\n    /* \"contracts/BiddingWar.sol\":1209:1220  !gameStatus */\n  iszero\n    /* \"contracts/BiddingWar.sol\":1201:1263  require(!gameStatus, \"Last game is still waiting for result!\") */\n  tag_21\n  jumpi\n  mload(0x40)\n  shl(0xe5, 0x461bcd)\n  dup2\n  mstore\n    /* \"#utility.yul\":780:782   */\n  0x20\n    /* \"contracts/BiddingWar.sol\":1201:1263  require(!gameStatus, \"Last game is still waiting for result!\") */\n  0x04\n  dup3\n  add\n    /* \"#utility.yul\":762:783   */\n  mstore\n    /* \"#utility.yul\":819:821   */\n  0x26\n    /* \"#utility.yul\":799:817   */\n  0x24\n  dup3\n  add\n    /* \"#utility.yul\":792:822   */\n  mstore\n    /* \"#utility.yul\":858:892   */\n  0x4c6173742067616d65206973207374696c6c2077616974696e6720666f722072\n    /* \"#utility.yul\":838:856   */\n  0x44\n  dup3\n  add\n    /* \"#utility.yul\":831:893   */\n  mstore\n  shl(0xd0, 0x6573756c7421)\n    /* \"#utility.yul\":909:927   */\n  0x64\n  dup3\n  add\n    /* \"#utility.yul\":902:938   */\n  mstore\n    /* \"#utility.yul\":955:974   */\n  0x84\n  add\n    /* \"contracts/BiddingWar.sol\":1201:1263  require(!gameStatus, \"Last game is still waiting for result!\") */\n  tag_7\n    /* \"#utility.yul\":578:980   */\n  jump\n    /* \"contracts/BiddingWar.sol\":1201:1263  require(!gameStatus, \"Last game is still waiting for result!\") */\ntag_21:\n    /* \"contracts/BiddingWar.sol\":1295:1317  block.timestamp + 3600 */\n  tag_24\n    /* \"contracts/BiddingWar.sol\":1295:1310  block.timestamp */\n  timestamp\n    /* \"contracts/BiddingWar.sol\":1313:1317  3600 */\n  0x0e10\n    /* \"contracts/BiddingWar.sol\":1295:1317  block.timestamp + 3600 */\n  tag_25\n  jump\t// in\ntag_24:\n    /* \"contracts/BiddingWar.sol\":1274:1285  gameEndTime */\n  0x03\n    /* \"contracts/BiddingWar.sol\":1274:1318  gameEndTime = uint64(block.timestamp + 3600) */\n  dup1\n  sload\n  sub(shl(0x40, 0x01), 0x01)\n  swap3\n  swap1\n  swap3\n  and\n  shl(0x80, 0x01)\n  mul\n  not(sub(shl(0xc0, 0x01), shl(0x80, 0x01)))\n  swap1\n  swap3\n  and\n  swap2\n  swap1\n  swap2\n  or\n  swap1\n  sstore\n    /* \"contracts/BiddingWar.sol\":1342:1352  gameStatus */\n  0x05\n    /* \"contracts/BiddingWar.sol\":1342:1359  gameStatus = true */\n  dup1\n  sload\n  not(sub(shl(0xa8, 0x01), 0x01))\n    /* \"contracts/BiddingWar.sol\":1402:1428  highestBidder = address(0) */\n  and\n  shl(0xa0, 0x01)\n  or\n  swap1\n  sstore\n  0x00\n    /* \"contracts/BiddingWar.sol\":1438:1448  highestBid */\n  0x04\n    /* \"contracts/BiddingWar.sol\":1438:1452  highestBid = 0 */\n  sstore\n    /* \"contracts/BiddingWar.sol\":1083:1459  function startGame() private {... */\n  jump\t// out\n    /* \"#utility.yul\":985:1207   */\ntag_25:\n    /* \"#utility.yul\":1050:1059   */\n  dup1\n  dup3\n  add\n    /* \"#utility.yul\":1071:1081   */\n  dup1\n  dup3\n  gt\n    /* \"#utility.yul\":1068:1201   */\n  iszero\n  tag_31\n  jumpi\n    /* \"#utility.yul\":1123:1133   */\n  0x4e487b71\n    /* \"#utility.yul\":1118:1121   */\n  0xe0\n    /* \"#utility.yul\":1114:1134   */\n  shl\n    /* \"#utility.yul\":1111:1112   */\n  0x00\n    /* \"#utility.yul\":1104:1135   */\n  mstore\n    /* \"#utility.yul\":1158:1162   */\n  0x11\n    /* \"#utility.yul\":1155:1156   */\n  0x04\n    /* \"#utility.yul\":1148:1163   */\n  mstore\n    /* \"#utility.yul\":1186:1190   */\n  0x24\n    /* \"#utility.yul\":1183:1184   */\n  0x00\n    /* \"#utility.yul\":1176:1191   */\n  revert\n    /* \"#utility.yul\":1068:1201   */\ntag_31:\n    /* \"#utility.yul\":985:1207   */\n  swap3\n  swap2\n  pop\n  pop\n  jump\t// out\ntag_26:\n    /* \"contracts/BiddingWar.sol\":313:3627  contract BiddingWar is Ownable, ReentrancyGuard {... */\n  dataSize(sub_0)\n  dup1\n  dataOffset(sub_0)\n  0x00\n  codecopy\n  0x00\n  return\nstop\n\nsub_0: assembly {\n        /* \"contracts/BiddingWar.sol\":313:3627  contract BiddingWar is Ownable, ReentrancyGuard {... */\n      mstore(0x40, 0x80)\n      jumpi(tag_1, lt(calldatasize, 0x04))\n      shr(0xe0, calldataload(0x00))\n      dup1\n      0x8da5cb5b\n      gt\n      tag_15\n      jumpi\n      dup1\n      0x8da5cb5b\n      eq\n      tag_9\n      jumpi\n      dup1\n      0x91f90157\n      eq\n      tag_10\n      jumpi\n      dup1\n      0xd57bde79\n      eq\n      tag_11\n      jumpi\n      dup1\n      0xe1489191\n      eq\n      tag_12\n      jumpi\n      dup1\n      0xecfc7ecc\n      eq\n      tag_13\n      jumpi\n      dup1\n      0xf2fde38b\n      eq\n      tag_14\n      jumpi\n      jump(tag_2)\n    tag_15:\n      dup1\n      0x03f69354\n      eq\n      tag_3\n      jumpi\n      dup1\n      0x4423c5f1\n      eq\n      tag_4\n      jumpi\n      dup1\n      0x44d9bc5f\n      eq\n      tag_5\n      jumpi\n      dup1\n      0x715018a6\n      eq\n      tag_6\n      jumpi\n      dup1\n      0x722fed7e\n      eq\n      tag_7\n      jumpi\n      dup1\n      0x8574c296\n      eq\n      tag_8\n      jumpi\n      jump(tag_2)\n    tag_1:\n      jumpi(tag_2, calldatasize)\n        /* \"contracts/BiddingWar.sol\":3523:3545  fundsTransferToOwner() */\n      tag_18\n        /* \"contracts/BiddingWar.sol\":3523:3543  fundsTransferToOwner */\n      tag_19\n        /* \"contracts/BiddingWar.sol\":3523:3545  fundsTransferToOwner() */\n      jump\t// in\n    tag_18:\n        /* \"contracts/BiddingWar.sol\":313:3627  contract BiddingWar is Ownable, ReentrancyGuard {... */\n      stop\n    tag_2:\n        /* \"contracts/BiddingWar.sol\":3596:3618  fundsTransferToOwner() */\n      tag_18\n        /* \"contracts/BiddingWar.sol\":3596:3616  fundsTransferToOwner */\n      tag_19\n        /* \"contracts/BiddingWar.sol\":3596:3618  fundsTransferToOwner() */\n      jump\t// in\n        /* \"contracts/BiddingWar.sol\":399:428  uint128 public bidCounter = 0 */\n    tag_3:\n      callvalue\n      dup1\n      iszero\n      tag_23\n      jumpi\n      0x00\n      dup1\n      revert\n    tag_23:\n      pop\n      sload(0x03)\n      tag_24\n      swap1\n      sub(shl(0x80, 0x01), 0x01)\n      and\n      dup2\n      jump\n    tag_24:\n      mload(0x40)\n      sub(shl(0x80, 0x01), 0x01)\n        /* \"#utility.yul\":178:225   */\n      swap1\n      swap2\n      and\n        /* \"#utility.yul\":160:226   */\n      dup2\n      mstore\n        /* \"#utility.yul\":148:150   */\n      0x20\n        /* \"#utility.yul\":133:151   */\n      add\n        /* \"contracts/BiddingWar.sol\":399:428  uint128 public bidCounter = 0 */\n    tag_26:\n      mload(0x40)\n      dup1\n      swap2\n      sub\n      swap1\n      return\n        /* \"contracts/BiddingWar.sol\":652:684  mapping(uint => Bid) public bids */\n    tag_4:\n      callvalue\n      dup1\n      iszero\n      tag_28\n      jumpi\n      0x00\n      dup1\n      revert\n    tag_28:\n      pop\n      tag_29\n      tag_30\n      calldatasize\n      0x04\n      tag_31\n      jump\t// in\n    tag_30:\n      mstore(0x20, 0x06)\n      0x00\n      swap1\n      dup2\n      mstore\n      0x40\n      swap1\n      keccak256\n      dup1\n      sload\n      0x01\n      swap1\n      swap2\n      add\n      sload\n      sub(shl(0xa0, 0x01), 0x01)\n      dup2\n      and\n      swap1\n      shl(0xa0, 0x01)\n      swap1\n      div\n      sub(shl(0x40, 0x01), 0x01)\n      and\n      dup4\n      jump\n    tag_29:\n      0x40\n      dup1\n      mload\n        /* \"#utility.yul\":622:647   */\n      swap4\n      dup5\n      mstore\n      sub(shl(0xa0, 0x01), 0x01)\n        /* \"#utility.yul\":683:715   */\n      swap1\n      swap3\n      and\n        /* \"#utility.yul\":678:680   */\n      0x20\n        /* \"#utility.yul\":663:681   */\n      dup5\n      add\n        /* \"#utility.yul\":656:716   */\n      mstore\n      sub(shl(0x40, 0x01), 0x01)\n        /* \"#utility.yul\":752:783   */\n      and\n        /* \"#utility.yul\":732:750   */\n      swap1\n      dup3\n      add\n        /* \"#utility.yul\":725:784   */\n      mstore\n        /* \"#utility.yul\":610:612   */\n      0x60\n        /* \"#utility.yul\":595:613   */\n      add\n        /* \"contracts/BiddingWar.sol\":652:684  mapping(uint => Bid) public bids */\n      tag_26\n        /* \"#utility.yul\":422:790   */\n      jump\n        /* \"contracts/BiddingWar.sol\":434:459  uint64 public gameEndTime */\n    tag_5:\n      callvalue\n      dup1\n      iszero\n      tag_35\n      jumpi\n      0x00\n      dup1\n      revert\n    tag_35:\n      pop\n      sload(0x03)\n      tag_36\n      swap1\n      shl(0x80, 0x01)\n      swap1\n      div\n      sub(shl(0x40, 0x01), 0x01)\n      and\n      dup2\n      jump\n    tag_36:\n      mload(0x40)\n      sub(shl(0x40, 0x01), 0x01)\n        /* \"#utility.yul\":957:988   */\n      swap1\n      swap2\n      and\n        /* \"#utility.yul\":939:989   */\n      dup2\n      mstore\n        /* \"#utility.yul\":927:929   */\n      0x20\n        /* \"#utility.yul\":912:930   */\n      add\n        /* \"contracts/BiddingWar.sol\":434:459  uint64 public gameEndTime */\n      tag_26\n        /* \"#utility.yul\":795:995   */\n      jump\n        /* \"@openzeppelin/contracts/access/Ownable.sol\":2293:2394  function renounceOwnership() public virtual onlyOwner {... */\n    tag_6:\n      callvalue\n      dup1\n      iszero\n      tag_40\n      jumpi\n      0x00\n      dup1\n      revert\n    tag_40:\n      pop\n      tag_18\n      tag_42\n      jump\t// in\n        /* \"contracts/BiddingWar.sol\":527:557  bool public gameStatus = false */\n    tag_7:\n      callvalue\n      dup1\n      iszero\n      tag_43\n      jumpi\n      0x00\n      dup1\n      revert\n    tag_43:\n      pop\n      sload(0x05)\n      tag_44\n      swap1\n      shl(0xa0, 0x01)\n      swap1\n      div\n      0xff\n      and\n      dup2\n      jump\n    tag_44:\n      mload(0x40)\n        /* \"#utility.yul\":1165:1179   */\n      swap1\n      iszero\n        /* \"#utility.yul\":1158:1180   */\n      iszero\n        /* \"#utility.yul\":1140:1181   */\n      dup2\n      mstore\n        /* \"#utility.yul\":1128:1130   */\n      0x20\n        /* \"#utility.yul\":1113:1131   */\n      add\n        /* \"contracts/BiddingWar.sol\":527:557  bool public gameStatus = false */\n      tag_26\n        /* \"#utility.yul\":1000:1187   */\n      jump\n        /* \"contracts/BiddingWar.sol\":2595:3316  function declareResult() public onlyOwner {... */\n    tag_8:\n      callvalue\n      dup1\n      iszero\n      tag_48\n      jumpi\n      0x00\n      dup1\n      revert\n    tag_48:\n      pop\n      tag_18\n      tag_50\n      jump\t// in\n        /* \"@openzeppelin/contracts/access/Ownable.sol\":1638:1723  function owner() public view virtual returns (address) {... */\n    tag_9:\n      callvalue\n      dup1\n      iszero\n      tag_51\n      jumpi\n      0x00\n      dup1\n      revert\n    tag_51:\n      pop\n        /* \"@openzeppelin/contracts/access/Ownable.sol\":1684:1691  address */\n      0x00\n        /* \"@openzeppelin/contracts/access/Ownable.sol\":1710:1716  _owner */\n      sload\n      sub(shl(0xa0, 0x01), 0x01)\n      and\n        /* \"@openzeppelin/contracts/access/Ownable.sol\":1638:1723  function owner() public view virtual returns (address) {... */\n    tag_52:\n      mload(0x40)\n      sub(shl(0xa0, 0x01), 0x01)\n        /* \"#utility.yul\":1356:1388   */\n      swap1\n      swap2\n      and\n        /* \"#utility.yul\":1338:1389   */\n      dup2\n      mstore\n        /* \"#utility.yul\":1326:1328   */\n      0x20\n        /* \"#utility.yul\":1311:1329   */\n      add\n        /* \"@openzeppelin/contracts/access/Ownable.sol\":1638:1723  function owner() public view virtual returns (address) {... */\n      tag_26\n        /* \"#utility.yul\":1192:1395   */\n      jump\n        /* \"contracts/BiddingWar.sol\":493:521  address public highestBidder */\n    tag_10:\n      callvalue\n      dup1\n      iszero\n      tag_56\n      jumpi\n      0x00\n      dup1\n      revert\n    tag_56:\n      pop\n      sload(0x05)\n      tag_52\n      swap1\n      sub(shl(0xa0, 0x01), 0x01)\n      and\n      dup2\n      jump\n        /* \"contracts/BiddingWar.sol\":465:487  uint public highestBid */\n    tag_11:\n      callvalue\n      dup1\n      iszero\n      tag_60\n      jumpi\n      0x00\n      dup1\n      revert\n    tag_60:\n      pop\n      tag_61\n      sload(0x04)\n      dup2\n      jump\n    tag_61:\n      mload(0x40)\n        /* \"#utility.yul\":1546:1571   */\n      swap1\n      dup2\n      mstore\n        /* \"#utility.yul\":1534:1536   */\n      0x20\n        /* \"#utility.yul\":1519:1537   */\n      add\n        /* \"contracts/BiddingWar.sol\":465:487  uint public highestBid */\n      tag_26\n        /* \"#utility.yul\":1400:1577   */\n      jump\n        /* \"contracts/BiddingWar.sol\":367:393  uint public commission = 5 */\n    tag_12:\n      callvalue\n      dup1\n      iszero\n      tag_65\n      jumpi\n      0x00\n      dup1\n      revert\n    tag_65:\n      pop\n      tag_61\n      sload(0x02)\n      dup2\n      jump\n        /* \"contracts/BiddingWar.sol\":1502:2530  function placeBid() external payable nonReentrant {... */\n    tag_13:\n      tag_18\n      tag_70\n      jump\t// in\n        /* \"@openzeppelin/contracts/access/Ownable.sol\":2543:2758  function transferOwnership(address newOwner) public virtual onlyOwner {... */\n    tag_14:\n      callvalue\n      dup1\n      iszero\n      tag_71\n      jumpi\n      0x00\n      dup1\n      revert\n    tag_71:\n      pop\n      tag_18\n      tag_73\n      calldatasize\n      0x04\n      tag_74\n      jump\t// in\n    tag_73:\n      tag_75\n      jump\t// in\n        /* \"contracts/BiddingWar.sol\":3387:3480  function fundsTransferToOwner() private {... */\n    tag_19:\n        /* \"@openzeppelin/contracts/access/Ownable.sol\":1684:1691  address */\n      0x00\n        /* \"@openzeppelin/contracts/access/Ownable.sol\":1710:1716  _owner */\n      dup1\n      sload\n        /* \"contracts/BiddingWar.sol\":3437:3473  payable(owner()).transfer(msg.value) */\n      mload(0x40)\n      sub(shl(0xa0, 0x01), 0x01)\n        /* \"@openzeppelin/contracts/access/Ownable.sol\":1710:1716  _owner */\n      swap1\n      swap2\n      and\n      swap2\n        /* \"contracts/BiddingWar.sol\":3463:3472  msg.value */\n      callvalue\n        /* \"contracts/BiddingWar.sol\":3437:3473  payable(owner()).transfer(msg.value) */\n      dup1\n      iszero\n      0x08fc\n      mul\n      swap3\n        /* \"contracts/BiddingWar.sol\":3463:3472  msg.value */\n      swap1\n      swap2\n        /* \"contracts/BiddingWar.sol\":3437:3473  payable(owner()).transfer(msg.value) */\n      dup2\n        /* \"@openzeppelin/contracts/access/Ownable.sol\":1684:1691  address */\n      dup2\n        /* \"contracts/BiddingWar.sol\":3437:3473  payable(owner()).transfer(msg.value) */\n      dup2\n        /* \"contracts/BiddingWar.sol\":3463:3472  msg.value */\n      dup6\n        /* \"@openzeppelin/contracts/access/Ownable.sol\":1710:1716  _owner */\n      dup9\n        /* \"contracts/BiddingWar.sol\":3437:3473  payable(owner()).transfer(msg.value) */\n      dup9\n      call\n      swap4\n      pop\n      pop\n      pop\n      pop\n      iszero\n      dup1\n      iszero\n      tag_79\n      jumpi\n      returndatasize\n      0x00\n      dup1\n      returndatacopy\n      revert(0x00, returndatasize)\n    tag_79:\n      pop\n        /* \"contracts/BiddingWar.sol\":3387:3480  function fundsTransferToOwner() private {... */\n      jump\t// out\n        /* \"@openzeppelin/contracts/access/Ownable.sol\":2293:2394  function renounceOwnership() public virtual onlyOwner {... */\n    tag_42:\n        /* \"@openzeppelin/contracts/access/Ownable.sol\":1531:1544  _checkOwner() */\n      tag_81\n        /* \"@openzeppelin/contracts/access/Ownable.sol\":1531:1542  _checkOwner */\n      tag_82\n        /* \"@openzeppelin/contracts/access/Ownable.sol\":1531:1544  _checkOwner() */\n      jump\t// in\n    tag_81:\n        /* \"@openzeppelin/contracts/access/Ownable.sol\":2357:2387  _transferOwnership(address(0)) */\n      tag_84\n        /* \"@openzeppelin/contracts/access/Ownable.sol\":2384:2385  0 */\n      0x00\n        /* \"@openzeppelin/contracts/access/Ownable.sol\":2357:2375  _transferOwnership */\n      tag_85\n        /* \"@openzeppelin/contracts/access/Ownable.sol\":2357:2387  _transferOwnership(address(0)) */\n      jump\t// in\n    tag_84:\n        /* \"@openzeppelin/contracts/access/Ownable.sol\":2293:2394  function renounceOwnership() public virtual onlyOwner {... */\n      jump\t// out\n        /* \"contracts/BiddingWar.sol\":2595:3316  function declareResult() public onlyOwner {... */\n    tag_50:\n        /* \"@openzeppelin/contracts/access/Ownable.sol\":1531:1544  _checkOwner() */\n      tag_87\n        /* \"@openzeppelin/contracts/access/Ownable.sol\":1531:1542  _checkOwner */\n      tag_82\n        /* \"@openzeppelin/contracts/access/Ownable.sol\":1531:1544  _checkOwner() */\n      jump\t// in\n    tag_87:\n        /* \"contracts/BiddingWar.sol\":2655:2666  gameEndTime */\n      sload(0x03)\n        /* \"contracts/BiddingWar.sol\":2669:2684  block.timestamp */\n      timestamp\n      shl(0x80, 0x01)\n        /* \"contracts/BiddingWar.sol\":2655:2666  gameEndTime */\n      swap1\n      swap2\n      div\n      sub(shl(0x40, 0x01), 0x01)\n      and\n        /* \"contracts/BiddingWar.sol\":2655:2684  gameEndTime < block.timestamp */\n      lt\n        /* \"contracts/BiddingWar.sol\":2647:2716  require(gameEndTime < block.timestamp, \"Last game is still running!\") */\n      tag_89\n      jumpi\n      mload(0x40)\n      shl(0xe5, 0x461bcd)\n      dup2\n      mstore\n        /* \"#utility.yul\":2075:2077   */\n      0x20\n        /* \"contracts/BiddingWar.sol\":2647:2716  require(gameEndTime < block.timestamp, \"Last game is still running!\") */\n      0x04\n      dup3\n      add\n        /* \"#utility.yul\":2057:2078   */\n      mstore\n        /* \"#utility.yul\":2114:2116   */\n      0x1b\n        /* \"#utility.yul\":2094:2112   */\n      0x24\n      dup3\n      add\n        /* \"#utility.yul\":2087:2117   */\n      mstore\n        /* \"#utility.yul\":2153:2182   */\n      0x4c6173742067616d65206973207374696c6c2072756e6e696e67210000000000\n        /* \"#utility.yul\":2133:2151   */\n      0x44\n      dup3\n      add\n        /* \"#utility.yul\":2126:2183   */\n      mstore\n        /* \"#utility.yul\":2200:2218   */\n      0x64\n      add\n        /* \"contracts/BiddingWar.sol\":2647:2716  require(gameEndTime < block.timestamp, \"Last game is still running!\") */\n    tag_90:\n      mload(0x40)\n      dup1\n      swap2\n      sub\n      swap1\n      revert\n    tag_89:\n        /* \"contracts/BiddingWar.sol\":2726:2736  gameStatus */\n      0x05\n        /* \"contracts/BiddingWar.sol\":2726:2744  gameStatus = false */\n      dup1\n      sload\n      not(shl(0xa0, 0xff))\n      dup2\n      and\n      swap1\n      swap2\n      sstore\n      sub(shl(0xa0, 0x01), 0x01)\n        /* \"contracts/BiddingWar.sol\":2811:2824  highestBidder */\n      and\n        /* \"contracts/BiddingWar.sol\":2811:2838  highestBidder != address(0) */\n      iszero\n        /* \"contracts/BiddingWar.sol\":2807:3260  if (highestBidder != address(0)) {... */\n      tag_92\n      jumpi\n        /* \"contracts/BiddingWar.sol\":3025:3038  highestBidder */\n      sload(0x05)\n        /* \"contracts/BiddingWar.sol\":3017:3056  payable(highestBidder).transfer(winAmt) */\n      mload(0x40)\n        /* \"contracts/BiddingWar.sol\":2980:2989  address() */\n      address\n        /* \"contracts/BiddingWar.sol\":2972:2990  balance(address()) */\n      balance\n      swap2\n      sub(shl(0xa0, 0x01), 0x01)\n        /* \"contracts/BiddingWar.sol\":3025:3038  highestBidder */\n      and\n      swap1\n        /* \"contracts/BiddingWar.sol\":3017:3056  payable(highestBidder).transfer(winAmt) */\n      dup3\n      iszero\n      0x08fc\n      mul\n      swap1\n        /* \"contracts/BiddingWar.sol\":2972:2990  balance(address()) */\n      dup4\n      swap1\n        /* \"contracts/BiddingWar.sol\":2906:2917  uint winAmt */\n      0x00\n        /* \"contracts/BiddingWar.sol\":3017:3056  payable(highestBidder).transfer(winAmt) */\n      dup2\n        /* \"contracts/BiddingWar.sol\":2906:2917  uint winAmt */\n      dup2\n        /* \"contracts/BiddingWar.sol\":3017:3056  payable(highestBidder).transfer(winAmt) */\n      dup2\n        /* \"contracts/BiddingWar.sol\":2972:2990  balance(address()) */\n      dup6\n        /* \"contracts/BiddingWar.sol\":3025:3038  highestBidder */\n      dup9\n        /* \"contracts/BiddingWar.sol\":3017:3056  payable(highestBidder).transfer(winAmt) */\n      dup9\n      call\n      swap4\n      pop\n      pop\n      pop\n      pop\n      iszero\n      dup1\n      iszero\n      tag_94\n      jumpi\n      returndatasize\n      0x00\n      dup1\n      returndatacopy\n      revert(0x00, returndatasize)\n    tag_94:\n      pop\n        /* \"contracts/BiddingWar.sol\":3222:3235  highestBidder */\n      sload(0x05)\n        /* \"contracts/BiddingWar.sol\":3101:3111  bidCounter */\n      sload(0x03)\n        /* \"contracts/BiddingWar.sol\":3129:3139  highestBid */\n      sload(0x04)\n        /* \"contracts/BiddingWar.sol\":3075:3249  WinEvent(... */\n      0x40\n      dup1\n      mload\n        /* \"#utility.yul\":2429:2454   */\n      swap2\n      dup3\n      mstore\n        /* \"#utility.yul\":2485:2487   */\n      0x20\n        /* \"#utility.yul\":2470:2488   */\n      dup3\n      add\n        /* \"#utility.yul\":2463:2497   */\n      dup6\n      swap1\n      mstore\n        /* \"contracts/BiddingWar.sol\":3188:3203  block.timestamp */\n      timestamp\n      sub(shl(0x40, 0x01), 0x01)\n        /* \"#utility.yul\":2533:2564   */\n      and\n        /* \"#utility.yul\":2513:2531   */\n      dup3\n      dup3\n      add\n        /* \"#utility.yul\":2506:2565   */\n      mstore\n        /* \"contracts/BiddingWar.sol\":3075:3249  WinEvent(... */\n      mload\n      sub(shl(0xa0, 0x01), 0x01)\n        /* \"contracts/BiddingWar.sol\":3222:3235  highestBidder */\n      swap1\n      swap4\n      and\n      swap3\n      sub(shl(0x80, 0x01), 0x01)\n        /* \"contracts/BiddingWar.sol\":3101:3111  bidCounter */\n      swap1\n      swap3\n      and\n      swap2\n        /* \"contracts/BiddingWar.sol\":3075:3249  WinEvent(... */\n      0xe900abebb29da21b2ce54f9bf92ace3e1f761a0a9a918473570dd7166057bc1f\n      swap2\n      dup2\n      swap1\n      sub\n        /* \"#utility.yul\":2417:2419   */\n      0x60\n        /* \"contracts/BiddingWar.sol\":3075:3249  WinEvent(... */\n      add\n      swap1\n      log3\n        /* \"contracts/BiddingWar.sol\":2840:3260  {... */\n      pop\n        /* \"contracts/BiddingWar.sol\":2807:3260  if (highestBidder != address(0)) {... */\n    tag_92:\n        /* \"contracts/BiddingWar.sol\":3298:3309  startGame() */\n      tag_84\n        /* \"contracts/BiddingWar.sol\":3298:3307  startGame */\n      tag_98\n        /* \"contracts/BiddingWar.sol\":3298:3309  startGame() */\n      jump\t// in\n        /* \"contracts/BiddingWar.sol\":1502:2530  function placeBid() external payable nonReentrant {... */\n    tag_70:\n        /* \"@openzeppelin/contracts/utils/ReentrancyGuard.sol\":2356:2377  _nonReentrantBefore() */\n      tag_101\n        /* \"@openzeppelin/contracts/utils/ReentrancyGuard.sol\":2356:2375  _nonReentrantBefore */\n      tag_102\n        /* \"@openzeppelin/contracts/utils/ReentrancyGuard.sol\":2356:2377  _nonReentrantBefore() */\n      jump\t// in\n    tag_101:\n        /* \"contracts/BiddingWar.sol\":1582:1583  0 */\n      0x00\n        /* \"contracts/BiddingWar.sol\":1570:1579  msg.value */\n      callvalue\n        /* \"contracts/BiddingWar.sol\":1570:1583  msg.value > 0 */\n      gt\n        /* \"contracts/BiddingWar.sol\":1562:1627  require(msg.value > 0, \"Bid amount should be greater than zero!\") */\n      tag_104\n      jumpi\n      mload(0x40)\n      shl(0xe5, 0x461bcd)\n      dup2\n      mstore\n        /* \"#utility.yul\":2778:2780   */\n      0x20\n        /* \"contracts/BiddingWar.sol\":1562:1627  require(msg.value > 0, \"Bid amount should be greater than zero!\") */\n      0x04\n      dup3\n      add\n        /* \"#utility.yul\":2760:2781   */\n      mstore\n        /* \"#utility.yul\":2817:2819   */\n      0x27\n        /* \"#utility.yul\":2797:2815   */\n      0x24\n      dup3\n      add\n        /* \"#utility.yul\":2790:2820   */\n      mstore\n        /* \"#utility.yul\":2856:2890   */\n      0x42696420616d6f756e742073686f756c64206265206772656174657220746861\n        /* \"#utility.yul\":2836:2854   */\n      0x44\n      dup3\n      add\n        /* \"#utility.yul\":2829:2891   */\n      mstore\n      shl(0xc8, 0x6e207a65726f21)\n        /* \"#utility.yul\":2907:2925   */\n      0x64\n      dup3\n      add\n        /* \"#utility.yul\":2900:2937   */\n      mstore\n        /* \"#utility.yul\":2954:2973   */\n      0x84\n      add\n        /* \"contracts/BiddingWar.sol\":1562:1627  require(msg.value > 0, \"Bid amount should be greater than zero!\") */\n      tag_90\n        /* \"#utility.yul\":2576:2979   */\n      jump\n        /* \"contracts/BiddingWar.sol\":1562:1627  require(msg.value > 0, \"Bid amount should be greater than zero!\") */\n    tag_104:\n        /* \"contracts/BiddingWar.sol\":1670:1680  highestBid */\n      sload(0x04)\n        /* \"contracts/BiddingWar.sol\":1658:1667  msg.value */\n      callvalue\n        /* \"contracts/BiddingWar.sol\":1658:1680  msg.value > highestBid */\n      gt\n        /* \"contracts/BiddingWar.sol\":1637:1756  require(... */\n      tag_107\n      jumpi\n      mload(0x40)\n      shl(0xe5, 0x461bcd)\n      dup2\n      mstore\n        /* \"#utility.yul\":3186:3188   */\n      0x20\n        /* \"contracts/BiddingWar.sol\":1637:1756  require(... */\n      0x04\n      dup3\n      add\n        /* \"#utility.yul\":3168:3189   */\n      mstore\n        /* \"#utility.yul\":3225:3227   */\n      0x32\n        /* \"#utility.yul\":3205:3223   */\n      0x24\n      dup3\n      add\n        /* \"#utility.yul\":3198:3228   */\n      mstore\n        /* \"#utility.yul\":3264:3298   */\n      0x42696420616d6f756e742073686f756c64206265206772656174657220746861\n        /* \"#utility.yul\":3244:3262   */\n      0x44\n      dup3\n      add\n        /* \"#utility.yul\":3237:3299   */\n      mstore\n      shl(0x70, 0x6e206c6173742062696420616d6f756e7421)\n        /* \"#utility.yul\":3315:3333   */\n      0x64\n      dup3\n      add\n        /* \"#utility.yul\":3308:3356   */\n      mstore\n        /* \"#utility.yul\":3373:3392   */\n      0x84\n      add\n        /* \"contracts/BiddingWar.sol\":1637:1756  require(... */\n      tag_90\n        /* \"#utility.yul\":2984:3398   */\n      jump\n        /* \"contracts/BiddingWar.sol\":1637:1756  require(... */\n    tag_107:\n        /* \"contracts/BiddingWar.sol\":1774:1785  gameEndTime */\n      sload(0x03)\n        /* \"contracts/BiddingWar.sol\":1788:1803  block.timestamp */\n      timestamp\n      shl(0x80, 0x01)\n        /* \"contracts/BiddingWar.sol\":1774:1785  gameEndTime */\n      swap1\n      swap2\n      div\n      sub(shl(0x40, 0x01), 0x01)\n      and\n        /* \"contracts/BiddingWar.sol\":1774:1803  gameEndTime > block.timestamp */\n      gt\n        /* \"contracts/BiddingWar.sol\":1766:1836  require(gameEndTime > block.timestamp, \"Game over wait for new game!\") */\n      tag_110\n      jumpi\n      mload(0x40)\n      shl(0xe5, 0x461bcd)\n      dup2\n      mstore\n        /* \"#utility.yul\":3605:3607   */\n      0x20\n        /* \"contracts/BiddingWar.sol\":1766:1836  require(gameEndTime > block.timestamp, \"Game over wait for new game!\") */\n      0x04\n      dup3\n      add\n        /* \"#utility.yul\":3587:3608   */\n      mstore\n        /* \"#utility.yul\":3644:3646   */\n      0x1c\n        /* \"#utility.yul\":3624:3642   */\n      0x24\n      dup3\n      add\n        /* \"#utility.yul\":3617:3647   */\n      mstore\n        /* \"#utility.yul\":3683:3713   */\n      0x47616d65206f766572207761697420666f72206e65772067616d652100000000\n        /* \"#utility.yul\":3663:3681   */\n      0x44\n      dup3\n      add\n        /* \"#utility.yul\":3656:3714   */\n      mstore\n        /* \"#utility.yul\":3731:3749   */\n      0x64\n      add\n        /* \"contracts/BiddingWar.sol\":1766:1836  require(gameEndTime > block.timestamp, \"Game over wait for new game!\") */\n      tag_90\n        /* \"#utility.yul\":3403:3755   */\n      jump\n        /* \"contracts/BiddingWar.sol\":1766:1836  require(gameEndTime > block.timestamp, \"Game over wait for new game!\") */\n    tag_110:\n        /* \"contracts/BiddingWar.sol\":1900:1910  bidCounter */\n      0x03\n        /* \"contracts/BiddingWar.sol\":1900:1912  bidCounter++ */\n      dup1\n      sload\n      sub(shl(0x80, 0x01), 0x01)\n      and\n      swap1\n        /* \"contracts/BiddingWar.sol\":1900:1910  bidCounter */\n      0x00\n        /* \"contracts/BiddingWar.sol\":1900:1912  bidCounter++ */\n      tag_113\n      dup4\n      tag_114\n      jump\t// in\n    tag_113:\n      dup3\n      sload\n      0x0100\n      swap3\n      swap1\n      swap3\n      exp\n      sub(shl(0x80, 0x01), 0x01)\n      dup2\n      dup2\n      mul\n      not\n      swap1\n      swap4\n      and\n      swap2\n      dup4\n      and\n      mul\n      or\n      swap1\n      swap2\n      sstore\n        /* \"contracts/BiddingWar.sol\":1927:1937  bidCounter */\n      0x03\n      dup1\n      sload\n      dup3\n      and\n      0x00\n        /* \"contracts/BiddingWar.sol\":1922:1938  bids[bidCounter] */\n      swap1\n      dup2\n      mstore\n        /* \"contracts/BiddingWar.sol\":1922:1926  bids */\n      0x06\n        /* \"contracts/BiddingWar.sol\":1922:1938  bids[bidCounter] */\n      0x20\n      swap1\n      dup2\n      mstore\n      0x40\n      dup1\n      dup4\n      keccak256\n        /* \"contracts/BiddingWar.sol\":1948:1957  msg.value */\n      callvalue\n        /* \"contracts/BiddingWar.sol\":1922:1957  bids[bidCounter].amount = msg.value */\n      swap1\n      dup2\n      swap1\n      sstore\n        /* \"contracts/BiddingWar.sol\":1972:1982  bidCounter */\n      dup5\n      sload\n      dup7\n      and\n        /* \"contracts/BiddingWar.sol\":1967:1983  bids[bidCounter] */\n      dup5\n      mstore\n      dup2\n      dup5\n      keccak256\n      0x01\n        /* \"contracts/BiddingWar.sol\":1967:1988  bids[bidCounter].when */\n      swap1\n      dup2\n      add\n        /* \"contracts/BiddingWar.sol\":1967:2014  bids[bidCounter].when = uint64(block.timestamp) */\n      dup1\n      sload\n      not(shl(0xa0, 0xffffffffffffffff))\n      and\n      shl(0xa0, 0x01)\n        /* \"contracts/BiddingWar.sol\":1998:2013  block.timestamp */\n      timestamp\n      sub(shl(0x40, 0x01), 0x01)\n        /* \"contracts/BiddingWar.sol\":1967:2014  bids[bidCounter].when = uint64(block.timestamp) */\n      and\n      swap1\n      dup2\n      mul\n      swap2\n      swap1\n      swap2\n      or\n      swap1\n      swap2\n      sstore\n        /* \"contracts/BiddingWar.sol\":2029:2039  bidCounter */\n      dup7\n      sload\n      dup9\n      and\n        /* \"contracts/BiddingWar.sol\":2024:2040  bids[bidCounter] */\n      dup7\n      mstore\n      swap5\n      dup4\n      swap1\n      keccak256\n        /* \"contracts/BiddingWar.sol\":2024:2045  bids[bidCounter].user */\n      add\n        /* \"contracts/BiddingWar.sol\":2024:2058  bids[bidCounter].user = msg.sender */\n      dup1\n      sload\n        /* \"contracts/BiddingWar.sol\":2048:2058  msg.sender */\n      caller\n      not(sub(shl(0xa0, 0x01), 0x01))\n        /* \"contracts/BiddingWar.sol\":2024:2058  bids[bidCounter].user = msg.sender */\n      swap1\n      swap2\n      and\n      dup2\n      or\n      swap1\n      swap2\n      sstore\n        /* \"contracts/BiddingWar.sol\":2096:2106  bidCounter */\n      swap5\n      sload\n        /* \"contracts/BiddingWar.sol\":2074:2200  BidEvent(... */\n      dup3\n      mload\n        /* \"#utility.yul\":4295:4320   */\n      swap2\n      dup3\n      mstore\n        /* \"#utility.yul\":4336:4354   */\n      swap3\n      dup2\n      add\n        /* \"#utility.yul\":4329:4388   */\n      swap4\n      swap1\n      swap4\n      mstore\n        /* \"contracts/BiddingWar.sol\":2048:2058  msg.sender */\n      swap3\n      swap5\n      pop\n        /* \"contracts/BiddingWar.sol\":2096:2106  bidCounter */\n      swap1\n      swap3\n      and\n      swap2\n        /* \"contracts/BiddingWar.sol\":2074:2200  BidEvent(... */\n      0x042ced85334596236356fb01034b15f35a1abbc3c7c51ba1b8d3ad152bfeda79\n      swap2\n        /* \"#utility.yul\":4268:4286   */\n      add\n        /* \"contracts/BiddingWar.sol\":2074:2200  BidEvent(... */\n      mload(0x40)\n      dup1\n      swap2\n      sub\n      swap1\n      log3\n        /* \"contracts/BiddingWar.sol\":2263:2274  gameEndTime */\n      sload(0x03)\n        /* \"contracts/BiddingWar.sol\":2263:2280  gameEndTime + 600 */\n      tag_117\n      swap1\n      shl(0x80, 0x01)\n        /* \"contracts/BiddingWar.sol\":2263:2274  gameEndTime */\n      swap1\n      div\n      sub(shl(0x40, 0x01), 0x01)\n      and\n        /* \"contracts/BiddingWar.sol\":2277:2280  600 */\n      0x0258\n        /* \"contracts/BiddingWar.sol\":2263:2280  gameEndTime + 600 */\n      tag_118\n      jump\t// in\n    tag_117:\n        /* \"contracts/BiddingWar.sol\":2249:2260  gameEndTime */\n      0x03\n        /* \"contracts/BiddingWar.sol\":2249:2280  gameEndTime = gameEndTime + 600 */\n      dup1\n      sload\n      sub(shl(0x40, 0x01), 0x01)\n      swap3\n      swap1\n      swap3\n      and\n      shl(0x80, 0x01)\n      mul\n      not(shl(0x80, 0xffffffffffffffff))\n      swap1\n      swap3\n      and\n      swap2\n      swap1\n      swap2\n      or\n      swap1\n      sstore\n        /* \"contracts/BiddingWar.sol\":2329:2338  msg.value */\n      callvalue\n        /* \"contracts/BiddingWar.sol\":2316:2326  highestBid */\n      0x04\n        /* \"contracts/BiddingWar.sol\":2316:2338  highestBid = msg.value */\n      dup2\n      swap1\n      sstore\n        /* \"contracts/BiddingWar.sol\":2348:2361  highestBidder */\n      0x05\n        /* \"contracts/BiddingWar.sol\":2348:2374  highestBidder = msg.sender */\n      dup1\n      sload\n      not(sub(shl(0xa0, 0x01), 0x01))\n      and\n        /* \"contracts/BiddingWar.sol\":2364:2374  msg.sender */\n      caller\n        /* \"contracts/BiddingWar.sol\":2348:2374  highestBidder = msg.sender */\n      or\n      swap1\n      sstore\n        /* \"contracts/BiddingWar.sol\":2454:2464  commission */\n      sload(0x02)\n      0x00\n      swap2\n        /* \"contracts/BiddingWar.sol\":2468:2471  100 */\n      0x64\n      swap2\n        /* \"contracts/BiddingWar.sol\":2442:2464  msg.value * commission */\n      tag_119\n      swap2\n      tag_120\n      jump\t// in\n    tag_119:\n        /* \"contracts/BiddingWar.sol\":2441:2471  (msg.value * commission) / 100 */\n      tag_121\n      swap2\n      swap1\n      tag_122\n      jump\t// in\n    tag_121:\n        /* \"contracts/BiddingWar.sol\":2418:2471  uint commissionValue = (msg.value * commission) / 100 */\n      swap1\n      pop\n        /* \"contracts/BiddingWar.sol\":2489:2496  owner() */\n      tag_123\n        /* \"@openzeppelin/contracts/access/Ownable.sol\":1684:1691  address */\n      0x00\n        /* \"@openzeppelin/contracts/access/Ownable.sol\":1710:1716  _owner */\n      sload\n      sub(shl(0xa0, 0x01), 0x01)\n      and\n      swap1\n        /* \"@openzeppelin/contracts/access/Ownable.sol\":1638:1723  function owner() public view virtual returns (address) {... */\n      jump\n        /* \"contracts/BiddingWar.sol\":2489:2496  owner() */\n    tag_123:\n      sub(shl(0xa0, 0x01), 0x01)\n        /* \"contracts/BiddingWar.sol\":2481:2506  payable(owner()).transfer */\n      and\n        /* \"contracts/BiddingWar.sol\":2481:2523  payable(owner()).transfer(commissionValue) */\n      0x08fc\n        /* \"contracts/BiddingWar.sol\":2507:2522  commissionValue */\n      dup3\n        /* \"contracts/BiddingWar.sol\":2481:2523  payable(owner()).transfer(commissionValue) */\n      swap1\n      dup2\n      iszero\n      mul\n      swap1\n      mload(0x40)\n      0x00\n      mload(0x40)\n      dup1\n      dup4\n      sub\n      dup2\n      dup6\n      dup9\n      dup9\n      call\n      swap4\n      pop\n      pop\n      pop\n      pop\n      iszero\n      dup1\n      iszero\n      tag_125\n      jumpi\n      returndatasize\n      0x00\n      dup1\n      returndatacopy\n      revert(0x00, returndatasize)\n    tag_125:\n      pop\n        /* \"contracts/BiddingWar.sol\":1552:2530  {... */\n      pop\n        /* \"@openzeppelin/contracts/utils/ReentrancyGuard.sol\":2398:2418  _nonReentrantAfter() */\n      tag_84\n        /* \"@openzeppelin/contracts/utils/ReentrancyGuard.sol\":1713:1714  1 */\n      0x01\n        /* \"@openzeppelin/contracts/utils/ReentrancyGuard.sol\":2924:2945  _status = NOT_ENTERED */\n      dup1\n      sstore\n        /* \"@openzeppelin/contracts/utils/ReentrancyGuard.sol\":2744:2952  function _nonReentrantAfter() private {... */\n      jump\n        /* \"@openzeppelin/contracts/access/Ownable.sol\":2543:2758  function transferOwnership(address newOwner) public virtual onlyOwner {... */\n    tag_75:\n        /* \"@openzeppelin/contracts/access/Ownable.sol\":1531:1544  _checkOwner() */\n      tag_129\n        /* \"@openzeppelin/contracts/access/Ownable.sol\":1531:1542  _checkOwner */\n      tag_82\n        /* \"@openzeppelin/contracts/access/Ownable.sol\":1531:1544  _checkOwner() */\n      jump\t// in\n    tag_129:\n      sub(shl(0xa0, 0x01), 0x01)\n        /* \"@openzeppelin/contracts/access/Ownable.sol\":2627:2649  newOwner == address(0) */\n      dup2\n      and\n        /* \"@openzeppelin/contracts/access/Ownable.sol\":2623:2714  if (newOwner == address(0)) {... */\n      tag_131\n      jumpi\n        /* \"@openzeppelin/contracts/access/Ownable.sol\":2672:2703  OwnableInvalidOwner(address(0)) */\n      mload(0x40)\n      shl(0xe0, 0x1e4fbdf7)\n      dup2\n      mstore\n        /* \"@openzeppelin/contracts/access/Ownable.sol\":2700:2701  0 */\n      0x00\n        /* \"@openzeppelin/contracts/access/Ownable.sol\":2672:2703  OwnableInvalidOwner(address(0)) */\n      0x04\n      dup3\n      add\n        /* \"#utility.yul\":1338:1389   */\n      mstore\n        /* \"#utility.yul\":1311:1329   */\n      0x24\n      add\n        /* \"@openzeppelin/contracts/access/Ownable.sol\":2672:2703  OwnableInvalidOwner(address(0)) */\n      tag_90\n        /* \"#utility.yul\":1192:1395   */\n      jump\n        /* \"@openzeppelin/contracts/access/Ownable.sol\":2623:2714  if (newOwner == address(0)) {... */\n    tag_131:\n        /* \"@openzeppelin/contracts/access/Ownable.sol\":2723:2751  _transferOwnership(newOwner) */\n      tag_79\n        /* \"@openzeppelin/contracts/access/Ownable.sol\":2742:2750  newOwner */\n      dup2\n        /* \"@openzeppelin/contracts/access/Ownable.sol\":2723:2741  _transferOwnership */\n      tag_85\n        /* \"@openzeppelin/contracts/access/Ownable.sol\":2723:2751  _transferOwnership(newOwner) */\n      jump\t// in\n        /* \"@openzeppelin/contracts/access/Ownable.sol\":1796:1958  function _checkOwner() internal view virtual {... */\n    tag_82:\n        /* \"@openzeppelin/contracts/access/Ownable.sol\":1684:1691  address */\n      0x00\n        /* \"@openzeppelin/contracts/access/Ownable.sol\":1710:1716  _owner */\n      sload\n      sub(shl(0xa0, 0x01), 0x01)\n      and\n        /* \"@openzeppelin/contracts/utils/Context.sol\":735:745  msg.sender */\n      caller\n        /* \"@openzeppelin/contracts/access/Ownable.sol\":1855:1878  owner() != _msgSender() */\n      eq\n        /* \"@openzeppelin/contracts/access/Ownable.sol\":1851:1952  if (owner() != _msgSender()) {... */\n      tag_84\n      jumpi\n        /* \"@openzeppelin/contracts/access/Ownable.sol\":1901:1941  OwnableUnauthorizedAccount(_msgSender()) */\n      mload(0x40)\n      shl(0xe0, 0x118cdaa7)\n      dup2\n      mstore\n        /* \"@openzeppelin/contracts/utils/Context.sol\":735:745  msg.sender */\n      caller\n        /* \"@openzeppelin/contracts/access/Ownable.sol\":1901:1941  OwnableUnauthorizedAccount(_msgSender()) */\n      0x04\n      dup3\n      add\n        /* \"#utility.yul\":1338:1389   */\n      mstore\n        /* \"#utility.yul\":1311:1329   */\n      0x24\n      add\n        /* \"@openzeppelin/contracts/access/Ownable.sol\":1901:1941  OwnableUnauthorizedAccount(_msgSender()) */\n      tag_90\n        /* \"#utility.yul\":1192:1395   */\n      jump\n        /* \"@openzeppelin/contracts/access/Ownable.sol\":2912:3099  function _transferOwnership(address newOwner) internal virtual {... */\n    tag_85:\n        /* \"@openzeppelin/contracts/access/Ownable.sol\":2985:3001  address oldOwner */\n      0x00\n        /* \"@openzeppelin/contracts/access/Ownable.sol\":3004:3010  _owner */\n      dup1\n      sload\n      sub(shl(0xa0, 0x01), 0x01)\n        /* \"@openzeppelin/contracts/access/Ownable.sol\":3020:3037  _owner = newOwner */\n      dup4\n      dup2\n      and\n      not(sub(shl(0xa0, 0x01), 0x01))\n      dup4\n      and\n      dup2\n      or\n      dup5\n      sstore\n        /* \"@openzeppelin/contracts/access/Ownable.sol\":3052:3092  OwnershipTransferred(oldOwner, newOwner) */\n      mload(0x40)\n        /* \"@openzeppelin/contracts/access/Ownable.sol\":3004:3010  _owner */\n      swap2\n      swap1\n      swap3\n      and\n      swap3\n      dup4\n      swap2\n        /* \"@openzeppelin/contracts/access/Ownable.sol\":3052:3092  OwnershipTransferred(oldOwner, newOwner) */\n      0x8be0079c531659141344cd1fd0a4f28419497f9722a3daafe3b4186f6b6457e0\n      swap2\n        /* \"@openzeppelin/contracts/access/Ownable.sol\":2985:3001  address oldOwner */\n      swap1\n        /* \"@openzeppelin/contracts/access/Ownable.sol\":3052:3092  OwnershipTransferred(oldOwner, newOwner) */\n      log3\n        /* \"@openzeppelin/contracts/access/Ownable.sol\":2975:3099  {... */\n      pop\n        /* \"@openzeppelin/contracts/access/Ownable.sol\":2912:3099  function _transferOwnership(address newOwner) internal virtual {... */\n      pop\n      jump\t// out\n        /* \"contracts/BiddingWar.sol\":1083:1459  function startGame() private {... */\n    tag_98:\n        /* \"contracts/BiddingWar.sol\":1130:1141  gameEndTime */\n      sload(0x03)\n        /* \"contracts/BiddingWar.sol\":1144:1159  block.timestamp */\n      timestamp\n      shl(0x80, 0x01)\n        /* \"contracts/BiddingWar.sol\":1130:1141  gameEndTime */\n      swap1\n      swap2\n      div\n      sub(shl(0x40, 0x01), 0x01)\n      and\n        /* \"contracts/BiddingWar.sol\":1130:1159  gameEndTime < block.timestamp */\n      lt\n        /* \"contracts/BiddingWar.sol\":1122:1191  require(gameEndTime < block.timestamp, \"Last game is still running!\") */\n      tag_143\n      jumpi\n      mload(0x40)\n      shl(0xe5, 0x461bcd)\n      dup2\n      mstore\n        /* \"#utility.yul\":2075:2077   */\n      0x20\n        /* \"contracts/BiddingWar.sol\":1122:1191  require(gameEndTime < block.timestamp, \"Last game is still running!\") */\n      0x04\n      dup3\n      add\n        /* \"#utility.yul\":2057:2078   */\n      mstore\n        /* \"#utility.yul\":2114:2116   */\n      0x1b\n        /* \"#utility.yul\":2094:2112   */\n      0x24\n      dup3\n      add\n        /* \"#utility.yul\":2087:2117   */\n      mstore\n        /* \"#utility.yul\":2153:2182   */\n      0x4c6173742067616d65206973207374696c6c2072756e6e696e67210000000000\n        /* \"#utility.yul\":2133:2151   */\n      0x44\n      dup3\n      add\n        /* \"#utility.yul\":2126:2183   */\n      mstore\n        /* \"#utility.yul\":2200:2218   */\n      0x64\n      add\n        /* \"contracts/BiddingWar.sol\":1122:1191  require(gameEndTime < block.timestamp, \"Last game is still running!\") */\n      tag_90\n        /* \"#utility.yul\":1873:2224   */\n      jump\n        /* \"contracts/BiddingWar.sol\":1122:1191  require(gameEndTime < block.timestamp, \"Last game is still running!\") */\n    tag_143:\n        /* \"contracts/BiddingWar.sol\":1210:1220  gameStatus */\n      sload(0x05)\n      shl(0xa0, 0x01)\n      swap1\n      div\n      0xff\n      and\n        /* \"contracts/BiddingWar.sol\":1209:1220  !gameStatus */\n      iszero\n        /* \"contracts/BiddingWar.sol\":1201:1263  require(!gameStatus, \"Last game is still waiting for result!\") */\n      tag_145\n      jumpi\n      mload(0x40)\n      shl(0xe5, 0x461bcd)\n      dup2\n      mstore\n        /* \"#utility.yul\":5181:5183   */\n      0x20\n        /* \"contracts/BiddingWar.sol\":1201:1263  require(!gameStatus, \"Last game is still waiting for result!\") */\n      0x04\n      dup3\n      add\n        /* \"#utility.yul\":5163:5184   */\n      mstore\n        /* \"#utility.yul\":5220:5222   */\n      0x26\n        /* \"#utility.yul\":5200:5218   */\n      0x24\n      dup3\n      add\n        /* \"#utility.yul\":5193:5223   */\n      mstore\n        /* \"#utility.yul\":5259:5293   */\n      0x4c6173742067616d65206973207374696c6c2077616974696e6720666f722072\n        /* \"#utility.yul\":5239:5257   */\n      0x44\n      dup3\n      add\n        /* \"#utility.yul\":5232:5294   */\n      mstore\n      shl(0xd0, 0x6573756c7421)\n        /* \"#utility.yul\":5310:5328   */\n      0x64\n      dup3\n      add\n        /* \"#utility.yul\":5303:5339   */\n      mstore\n        /* \"#utility.yul\":5356:5375   */\n      0x84\n      add\n        /* \"contracts/BiddingWar.sol\":1201:1263  require(!gameStatus, \"Last game is still waiting for result!\") */\n      tag_90\n        /* \"#utility.yul\":4979:5381   */\n      jump\n        /* \"contracts/BiddingWar.sol\":1201:1263  require(!gameStatus, \"Last game is still waiting for result!\") */\n    tag_145:\n        /* \"contracts/BiddingWar.sol\":1295:1317  block.timestamp + 3600 */\n      tag_148\n        /* \"contracts/BiddingWar.sol\":1295:1310  block.timestamp */\n      timestamp\n        /* \"contracts/BiddingWar.sol\":1313:1317  3600 */\n      0x0e10\n        /* \"contracts/BiddingWar.sol\":1295:1317  block.timestamp + 3600 */\n      tag_149\n      jump\t// in\n    tag_148:\n        /* \"contracts/BiddingWar.sol\":1274:1285  gameEndTime */\n      0x03\n        /* \"contracts/BiddingWar.sol\":1274:1318  gameEndTime = uint64(block.timestamp + 3600) */\n      dup1\n      sload\n      sub(shl(0x40, 0x01), 0x01)\n      swap3\n      swap1\n      swap3\n      and\n      shl(0x80, 0x01)\n      mul\n      not(shl(0x80, 0xffffffffffffffff))\n      swap1\n      swap3\n      and\n      swap2\n      swap1\n      swap2\n      or\n      swap1\n      sstore\n        /* \"contracts/BiddingWar.sol\":1342:1352  gameStatus */\n      0x05\n        /* \"contracts/BiddingWar.sol\":1342:1359  gameStatus = true */\n      dup1\n      sload\n      not(sub(shl(0xa8, 0x01), 0x01))\n        /* \"contracts/BiddingWar.sol\":1402:1428  highestBidder = address(0) */\n      and\n      shl(0xa0, 0x01)\n      or\n      swap1\n      sstore\n      0x00\n        /* \"contracts/BiddingWar.sol\":1438:1448  highestBid */\n      0x04\n        /* \"contracts/BiddingWar.sol\":1438:1452  highestBid = 0 */\n      sstore\n        /* \"contracts/BiddingWar.sol\":1083:1459  function startGame() private {... */\n      jump\t// out\n        /* \"@openzeppelin/contracts/utils/ReentrancyGuard.sol\":2431:2738  function _nonReentrantBefore() private {... */\n    tag_102:\n        /* \"@openzeppelin/contracts/utils/ReentrancyGuard.sol\":1755:1756  2 */\n      0x02\n        /* \"@openzeppelin/contracts/utils/ReentrancyGuard.sol\":2558:2565  _status */\n      sload(0x01)\n        /* \"@openzeppelin/contracts/utils/ReentrancyGuard.sol\":2558:2576  _status == ENTERED */\n      sub\n        /* \"@openzeppelin/contracts/utils/ReentrancyGuard.sol\":2554:2640  if (_status == ENTERED) {... */\n      tag_151\n      jumpi\n        /* \"@openzeppelin/contracts/utils/ReentrancyGuard.sol\":2599:2629  ReentrancyGuardReentrantCall() */\n      mload(0x40)\n      shl(0xe0, 0x3ee5aeb5)\n      dup2\n      mstore\n      0x04\n      add\n      mload(0x40)\n      dup1\n      swap2\n      sub\n      swap1\n      revert\n        /* \"@openzeppelin/contracts/utils/ReentrancyGuard.sol\":2554:2640  if (_status == ENTERED) {... */\n    tag_151:\n        /* \"@openzeppelin/contracts/utils/ReentrancyGuard.sol\":1755:1756  2 */\n      0x02\n        /* \"@openzeppelin/contracts/utils/ReentrancyGuard.sol\":2714:2721  _status */\n      0x01\n        /* \"@openzeppelin/contracts/utils/ReentrancyGuard.sol\":2714:2731  _status = ENTERED */\n      sstore\n        /* \"@openzeppelin/contracts/utils/ReentrancyGuard.sol\":2431:2738  function _nonReentrantBefore() private {... */\n      jump\t// out\n        /* \"#utility.yul\":237:417   */\n    tag_31:\n        /* \"#utility.yul\":296:302   */\n      0x00\n        /* \"#utility.yul\":349:351   */\n      0x20\n        /* \"#utility.yul\":337:346   */\n      dup3\n        /* \"#utility.yul\":328:335   */\n      dup5\n        /* \"#utility.yul\":324:347   */\n      sub\n        /* \"#utility.yul\":320:352   */\n      slt\n        /* \"#utility.yul\":317:369   */\n      iszero\n      tag_158\n      jumpi\n        /* \"#utility.yul\":365:366   */\n      0x00\n        /* \"#utility.yul\":362:363   */\n      dup1\n        /* \"#utility.yul\":355:367   */\n      revert\n        /* \"#utility.yul\":317:369   */\n    tag_158:\n      pop\n        /* \"#utility.yul\":388:411   */\n      calldataload\n      swap2\n        /* \"#utility.yul\":237:417   */\n      swap1\n      pop\n      jump\t// out\n        /* \"#utility.yul\":1582:1868   */\n    tag_74:\n        /* \"#utility.yul\":1641:1647   */\n      0x00\n        /* \"#utility.yul\":1694:1696   */\n      0x20\n        /* \"#utility.yul\":1682:1691   */\n      dup3\n        /* \"#utility.yul\":1673:1680   */\n      dup5\n        /* \"#utility.yul\":1669:1692   */\n      sub\n        /* \"#utility.yul\":1665:1697   */\n      slt\n        /* \"#utility.yul\":1662:1714   */\n      iszero\n      tag_165\n      jumpi\n        /* \"#utility.yul\":1710:1711   */\n      0x00\n        /* \"#utility.yul\":1707:1708   */\n      dup1\n        /* \"#utility.yul\":1700:1712   */\n      revert\n        /* \"#utility.yul\":1662:1714   */\n    tag_165:\n        /* \"#utility.yul\":1736:1759   */\n      dup2\n      calldataload\n      sub(shl(0xa0, 0x01), 0x01)\n        /* \"#utility.yul\":1788:1819   */\n      dup2\n      and\n        /* \"#utility.yul\":1778:1820   */\n      dup2\n      eq\n        /* \"#utility.yul\":1768:1838   */\n      tag_166\n      jumpi\n        /* \"#utility.yul\":1834:1835   */\n      0x00\n        /* \"#utility.yul\":1831:1832   */\n      dup1\n        /* \"#utility.yul\":1824:1836   */\n      revert\n        /* \"#utility.yul\":1768:1838   */\n    tag_166:\n        /* \"#utility.yul\":1857:1862   */\n      swap4\n        /* \"#utility.yul\":1582:1868   */\n      swap3\n      pop\n      pop\n      pop\n      jump\t// out\n        /* \"#utility.yul\":3760:3887   */\n    tag_154:\n        /* \"#utility.yul\":3821:3831   */\n      0x4e487b71\n        /* \"#utility.yul\":3816:3819   */\n      0xe0\n        /* \"#utility.yul\":3812:3832   */\n      shl\n        /* \"#utility.yul\":3809:3810   */\n      0x00\n        /* \"#utility.yul\":3802:3833   */\n      mstore\n        /* \"#utility.yul\":3852:3856   */\n      0x11\n        /* \"#utility.yul\":3849:3850   */\n      0x04\n        /* \"#utility.yul\":3842:3857   */\n      mstore\n        /* \"#utility.yul\":3876:3880   */\n      0x24\n        /* \"#utility.yul\":3873:3874   */\n      0x00\n        /* \"#utility.yul\":3866:3881   */\n      revert\n        /* \"#utility.yul\":3892:4118   */\n    tag_114:\n        /* \"#utility.yul\":3931:3934   */\n      0x00\n      sub(shl(0x80, 0x01), 0x01)\n        /* \"#utility.yul\":4028:4030   */\n      dup1\n        /* \"#utility.yul\":4021:4026   */\n      dup4\n        /* \"#utility.yul\":4017:4031   */\n      and\n        /* \"#utility.yul\":4055:4057   */\n      dup2\n        /* \"#utility.yul\":4046:4053   */\n      dup2\n        /* \"#utility.yul\":4043:4058   */\n      sub\n        /* \"#utility.yul\":4040:4081   */\n      tag_175\n      jumpi\n        /* \"#utility.yul\":4061:4079   */\n      tag_175\n      tag_154\n      jump\t// in\n    tag_175:\n        /* \"#utility.yul\":4110:4111   */\n      0x01\n        /* \"#utility.yul\":4097:4112   */\n      add\n      swap4\n        /* \"#utility.yul\":3892:4118   */\n      swap3\n      pop\n      pop\n      pop\n      jump\t// out\n        /* \"#utility.yul\":4399:4579   */\n    tag_118:\n      sub(shl(0x40, 0x01), 0x01)\n        /* \"#utility.yul\":4504:4514   */\n      dup2\n      dup2\n      and\n        /* \"#utility.yul\":4516:4526   */\n      dup4\n      dup3\n      and\n        /* \"#utility.yul\":4500:4527   */\n      add\n      swap1\n        /* \"#utility.yul\":4539:4550   */\n      dup1\n      dup3\n      gt\n        /* \"#utility.yul\":4536:4573   */\n      iszero\n      tag_179\n      jumpi\n        /* \"#utility.yul\":4553:4571   */\n      tag_179\n      tag_154\n      jump\t// in\n    tag_179:\n        /* \"#utility.yul\":4536:4573   */\n      pop\n        /* \"#utility.yul\":4399:4579   */\n      swap3\n      swap2\n      pop\n      pop\n      jump\t// out\n        /* \"#utility.yul\":4584:4752   */\n    tag_120:\n        /* \"#utility.yul\":4657:4666   */\n      dup1\n      dup3\n      mul\n        /* \"#utility.yul\":4688:4697   */\n      dup2\n      iszero\n        /* \"#utility.yul\":4705:4720   */\n      dup3\n      dup3\n      div\n        /* \"#utility.yul\":4699:4721   */\n      dup5\n      eq\n        /* \"#utility.yul\":4685:4722   */\n      or\n        /* \"#utility.yul\":4675:4746   */\n      tag_182\n      jumpi\n        /* \"#utility.yul\":4726:4744   */\n      tag_182\n      tag_154\n      jump\t// in\n    tag_182:\n        /* \"#utility.yul\":4584:4752   */\n      swap3\n      swap2\n      pop\n      pop\n      jump\t// out\n        /* \"#utility.yul\":4757:4974   */\n    tag_122:\n        /* \"#utility.yul\":4797:4798   */\n      0x00\n        /* \"#utility.yul\":4823:4824   */\n      dup3\n        /* \"#utility.yul\":4813:4945   */\n      tag_184\n      jumpi\n        /* \"#utility.yul\":4867:4877   */\n      0x4e487b71\n        /* \"#utility.yul\":4862:4865   */\n      0xe0\n        /* \"#utility.yul\":4858:4878   */\n      shl\n        /* \"#utility.yul\":4855:4856   */\n      0x00\n        /* \"#utility.yul\":4848:4879   */\n      mstore\n        /* \"#utility.yul\":4902:4906   */\n      0x12\n        /* \"#utility.yul\":4899:4900   */\n      0x04\n        /* \"#utility.yul\":4892:4907   */\n      mstore\n        /* \"#utility.yul\":4930:4934   */\n      0x24\n        /* \"#utility.yul\":4927:4928   */\n      0x00\n        /* \"#utility.yul\":4920:4935   */\n      revert\n        /* \"#utility.yul\":4813:4945   */\n    tag_184:\n      pop\n        /* \"#utility.yul\":4959:4968   */\n      div\n      swap1\n        /* \"#utility.yul\":4757:4974   */\n      jump\t// out\n        /* \"#utility.yul\":5386:5511   */\n    tag_149:\n        /* \"#utility.yul\":5451:5460   */\n      dup1\n      dup3\n      add\n        /* \"#utility.yul\":5472:5482   */\n      dup1\n      dup3\n      gt\n        /* \"#utility.yul\":5469:5505   */\n      iszero\n      tag_182\n      jumpi\n        /* \"#utility.yul\":5485:5503   */\n      tag_182\n      tag_154\n      jump\t// in\n\n    auxdata: 0xa26469706673582212201bdc321e2fc4fdc2a2b95ce99dd370a0b25eab9d37baa73ebca1ceda6ca9127664736f6c63430008190033\n}\n",
				"bytecode": {
					"linkReferences": {},
					"object": "608060405260056002819055600380546001600160801b0319169055805460ff60a01b19169055348015610031575f80fd5b50338061005857604051631e4fbdf760e01b81525f60048201526024015b60405180910390fd5b61006181610073565b506001805561006e6100c2565b610205565b5f80546001600160a01b038381166001600160a01b0319831681178455604051919092169283917f8be0079c531659141344cd1fd0a4f28419497f9722a3daafe3b4186f6b6457e09190a35050565b60035442600160801b9091046001600160401b0316106101245760405162461bcd60e51b815260206004820152601b60248201527f4c6173742067616d65206973207374696c6c2072756e6e696e67210000000000604482015260640161004f565b600554600160a01b900460ff161561018d5760405162461bcd60e51b815260206004820152602660248201527f4c6173742067616d65206973207374696c6c2077616974696e6720666f7220726044820152656573756c742160d01b606482015260840161004f565b61019942610e106101e0565b600380546001600160401b0392909216600160801b02600160801b600160c01b0319909216919091179055600580546001600160a81b031916600160a01b1790555f600455565b808201808211156101ff57634e487b7160e01b5f52601160045260245ffd5b92915050565b610a54806102125f395ff3fe6080604052600436106100aa575f3560e01c80638da5cb5b116100635780638da5cb5b1461020c57806391f901571461023c578063d57bde791461025b578063e14891911461027e578063ecfc7ecc14610293578063f2fde38b1461029b576100b9565b806303f69354146100c15780634423c5f1146100fd57806344d9bc5f14610176578063715018a6146101b4578063722fed7e146101c85780638574c296146101f8576100b9565b366100b9576100b76102ba565b005b6100b76102ba565b3480156100cc575f80fd5b506003546100e0906001600160801b031681565b6040516001600160801b0390911681526020015b60405180910390f35b348015610108575f80fd5b5061014a61011736600461092b565b60066020525f9081526040902080546001909101546001600160a01b03811690600160a01b90046001600160401b031683565b604080519384526001600160a01b0390921660208401526001600160401b0316908201526060016100f4565b348015610181575f80fd5b5060035461019c90600160801b90046001600160401b031681565b6040516001600160401b0390911681526020016100f4565b3480156101bf575f80fd5b506100b76102f4565b3480156101d3575f80fd5b506005546101e890600160a01b900460ff1681565b60405190151581526020016100f4565b348015610203575f80fd5b506100b7610307565b348015610217575f80fd5b505f546001600160a01b03165b6040516001600160a01b0390911681526020016100f4565b348015610247575f80fd5b50600554610224906001600160a01b031681565b348015610266575f80fd5b5061027060045481565b6040519081526020016100f4565b348015610289575f80fd5b5061027060025481565b6100b761043e565b3480156102a6575f80fd5b506100b76102b5366004610942565b61072d565b5f80546040516001600160a01b03909116913480156108fc02929091818181858888f193505050501580156102f1573d5f803e3d5ffd5b50565b6102fc610767565b6103055f610793565b565b61030f610767565b60035442600160801b9091046001600160401b0316106103765760405162461bcd60e51b815260206004820152601b60248201527f4c6173742067616d65206973207374696c6c2072756e6e696e6721000000000060448201526064015b60405180910390fd5b6005805460ff60a01b1981169091556001600160a01b031615610436576005546040513031916001600160a01b03169082156108fc029083905f818181858888f193505050501580156103cb573d5f803e3d5ffd5b506005546003546004546040805191825260208201859052426001600160401b031682820152516001600160a01b03909316926001600160801b03909216917fe900abebb29da21b2ce54f9bf92ace3e1f761a0a9a918473570dd7166057bc1f9181900360600190a3505b6103056107e2565b610446610901565b5f34116104a55760405162461bcd60e51b815260206004820152602760248201527f42696420616d6f756e742073686f756c642062652067726561746572207468616044820152666e207a65726f2160c81b606482015260840161036d565b60045434116105115760405162461bcd60e51b815260206004820152603260248201527f42696420616d6f756e742073686f756c642062652067726561746572207468616044820152716e206c6173742062696420616d6f756e742160701b606482015260840161036d565b60035442600160801b9091046001600160401b0316116105735760405162461bcd60e51b815260206004820152601c60248201527f47616d65206f766572207761697420666f72206e65772067616d652100000000604482015260640161036d565b600380546001600160801b0316905f61058b83610983565b82546101009290920a6001600160801b038181021990931691831602179091556003805482165f90815260066020908152604080832034908190558454861684528184206001908101805467ffffffffffffffff60a01b1916600160a01b426001600160401b03169081029190911790915586548816865294839020018054336001600160a01b031990911681179091559454825191825292810193909352929450909216917f042ced85334596236356fb01034b15f35a1abbc3c7c51ba1b8d3ad152bfeda79910160405180910390a360035461067b90600160801b90046001600160401b03166102586109a8565b600380546001600160401b0392909216600160801b0267ffffffffffffffff60801b19909216919091179055346004819055600580546001600160a01b031916331790556002545f916064916106d0916109cf565b6106da91906109ec565b90506106ed5f546001600160a01b031690565b6001600160a01b03166108fc8290811502906040515f60405180830381858888f19350505050158015610722573d5f803e3d5ffd5b505061030560018055565b610735610767565b6001600160a01b03811661075e57604051631e4fbdf760e01b81525f600482015260240161036d565b6102f181610793565b5f546001600160a01b031633146103055760405163118cdaa760e01b815233600482015260240161036d565b5f80546001600160a01b038381166001600160a01b0319831681178455604051919092169283917f8be0079c531659141344cd1fd0a4f28419497f9722a3daafe3b4186f6b6457e09190a35050565b60035442600160801b9091046001600160401b0316106108445760405162461bcd60e51b815260206004820152601b60248201527f4c6173742067616d65206973207374696c6c2072756e6e696e67210000000000604482015260640161036d565b600554600160a01b900460ff16156108ad5760405162461bcd60e51b815260206004820152602660248201527f4c6173742067616d65206973207374696c6c2077616974696e6720666f7220726044820152656573756c742160d01b606482015260840161036d565b6108b942610e10610a0b565b600380546001600160401b0392909216600160801b0267ffffffffffffffff60801b19909216919091179055600580546001600160a81b031916600160a01b1790555f600455565b60026001540361092457604051633ee5aeb560e01b815260040160405180910390fd5b6002600155565b5f6020828403121561093b575f80fd5b5035919050565b5f60208284031215610952575f80fd5b81356001600160a01b0381168114610968575f80fd5b9392505050565b634e487b7160e01b5f52601160045260245ffd5b5f6001600160801b0380831681810361099e5761099e61096f565b6001019392505050565b6001600160401b038181168382160190808211156109c8576109c861096f565b5092915050565b80820281158282048414176109e6576109e661096f565b92915050565b5f82610a0657634e487b7160e01b5f52601260045260245ffd5b500490565b808201808211156109e6576109e661096f56fea26469706673582212201bdc321e2fc4fdc2a2b95ce99dd370a0b25eab9d37baa73ebca1ceda6ca9127664736f6c63430008190033",
					"opcodes": "PUSH1 0x80 PUSH1 0x40 MSTORE PUSH1 0x5 PUSH1 0x2 DUP2 SWAP1 SSTORE PUSH1 0x3 DUP1 SLOAD PUSH1 0x1 PUSH1 0x1 PUSH1 0x80 SHL SUB NOT AND SWAP1 SSTORE DUP1 SLOAD PUSH1 0xFF PUSH1 0xA0 SHL NOT AND SWAP1 SSTORE CALLVALUE DUP1 ISZERO PUSH2 0x31 JUMPI PUSH0 DUP1 REVERT JUMPDEST POP CALLER DUP1 PUSH2 0x58 JUMPI PUSH1 0x40 MLOAD PUSH4 0x1E4FBDF7 PUSH1 0xE0 SHL DUP2 MSTORE PUSH0 PUSH1 0x4 DUP3 ADD MSTORE PUSH1 0x24 ADD JUMPDEST PUSH1 0x40 MLOAD DUP1 SWAP2 SUB SWAP1 REVERT JUMPDEST PUSH2 0x61 DUP2 PUSH2 0x73 JUMP JUMPDEST POP PUSH1 0x1 DUP1 SSTORE PUSH2 0x6E PUSH2 0xC2 JUMP JUMPDEST PUSH2 0x205 JUMP JUMPDEST PUSH0 DUP1 SLOAD PUSH1 0x1 PUSH1 0x1 PUSH1 0xA0 SHL SUB DUP4 DUP2 AND PUSH1 0x1 PUSH1 0x1 PUSH1 0xA0 SHL SUB NOT DUP4 AND DUP2 OR DUP5 SSTORE PUSH1 0x40 MLOAD SWAP2 SWAP1 SWAP3 AND SWAP3 DUP4 SWAP2 PUSH32 0x8BE0079C531659141344CD1FD0A4F28419497F9722A3DAAFE3B4186F6B6457E0 SWAP2 SWAP1 LOG3 POP POP JUMP JUMPDEST PUSH1 0x3 SLOAD TIMESTAMP PUSH1 0x1 PUSH1 0x80 SHL SWAP1 SWAP2 DIV PUSH1 0x1 PUSH1 0x1 PUSH1 0x40 SHL SUB AND LT PUSH2 0x124 JUMPI PUSH1 0x40 MLOAD PUSH3 0x461BCD PUSH1 0xE5 SHL DUP2 MSTORE PUSH1 0x20 PUSH1 0x4 DUP3 ADD MSTORE PUSH1 0x1B PUSH1 0x24 DUP3 ADD MSTORE PUSH32 0x4C6173742067616D65206973207374696C6C2072756E6E696E67210000000000 PUSH1 0x44 DUP3 ADD MSTORE PUSH1 0x64 ADD PUSH2 0x4F JUMP JUMPDEST PUSH1 0x5 SLOAD PUSH1 0x1 PUSH1 0xA0 SHL SWAP1 DIV PUSH1 0xFF AND ISZERO PUSH2 0x18D JUMPI PUSH1 0x40 MLOAD PUSH3 0x461BCD PUSH1 0xE5 SHL DUP2 MSTORE PUSH1 0x20 PUSH1 0x4 DUP3 ADD MSTORE PUSH1 0x26 PUSH1 0x24 DUP3 ADD MSTORE PUSH32 0x4C6173742067616D65206973207374696C6C2077616974696E6720666F722072 PUSH1 0x44 DUP3 ADD MSTORE PUSH6 0x6573756C7421 PUSH1 0xD0 SHL PUSH1 0x64 DUP3 ADD MSTORE PUSH1 0x84 ADD PUSH2 0x4F JUMP JUMPDEST PUSH2 0x199 TIMESTAMP PUSH2 0xE10 PUSH2 0x1E0 JUMP JUMPDEST PUSH1 0x3 DUP1 SLOAD PUSH1 0x1 PUSH1 0x1 PUSH1 0x40 SHL SUB SWAP3 SWAP1 SWAP3 AND PUSH1 0x1 PUSH1 0x80 SHL MUL PUSH1 0x1 PUSH1 0x80 SHL PUSH1 0x1 PUSH1 0xC0 SHL SUB NOT SWAP1 SWAP3 AND SWAP2 SWAP1 SWAP2 OR SWAP1 SSTORE PUSH1 0x5 DUP1 SLOAD PUSH1 0x1 PUSH1 0x1 PUSH1 0xA8 SHL SUB NOT AND PUSH1 0x1 PUSH1 0xA0 SHL OR SWAP1 SSTORE PUSH0 PUSH1 0x4 SSTORE JUMP JUMPDEST DUP1 DUP3 ADD DUP1 DUP3 GT ISZERO PUSH2 0x1FF JUMPI PUSH4 0x4E487B71 PUSH1 0xE0 SHL PUSH0 MSTORE PUSH1 0x11 PUSH1 0x4 MSTORE PUSH1 0x24 PUSH0 REVERT JUMPDEST SWAP3 SWAP2 POP POP JUMP JUMPDEST PUSH2 0xA54 DUP1 PUSH2 0x212 PUSH0 CODECOPY PUSH0 RETURN INVALID PUSH1 0x80 PUSH1 0x40 MSTORE PUSH1 0x4 CALLDATASIZE LT PUSH2 0xAA JUMPI PUSH0 CALLDATALOAD PUSH1 0xE0 SHR DUP1 PUSH4 0x8DA5CB5B GT PUSH2 0x63 JUMPI DUP1 PUSH4 0x8DA5CB5B EQ PUSH2 0x20C JUMPI DUP1 PUSH4 0x91F90157 EQ PUSH2 0x23C JUMPI DUP1 PUSH4 0xD57BDE79 EQ PUSH2 0x25B JUMPI DUP1 PUSH4 0xE1489191 EQ PUSH2 0x27E JUMPI DUP1 PUSH4 0xECFC7ECC EQ PUSH2 0x293 JUMPI DUP1 PUSH4 0xF2FDE38B EQ PUSH2 0x29B JUMPI PUSH2 0xB9 JUMP JUMPDEST DUP1 PUSH4 0x3F69354 EQ PUSH2 0xC1 JUMPI DUP1 PUSH4 0x4423C5F1 EQ PUSH2 0xFD JUMPI DUP1 PUSH4 0x44D9BC5F EQ PUSH2 0x176 JUMPI DUP1 PUSH4 0x715018A6 EQ PUSH2 0x1B4 JUMPI DUP1 PUSH4 0x722FED7E EQ PUSH2 0x1C8 JUMPI DUP1 PUSH4 0x8574C296 EQ PUSH2 0x1F8 JUMPI PUSH2 0xB9 JUMP JUMPDEST CALLDATASIZE PUSH2 0xB9 JUMPI PUSH2 0xB7 PUSH2 0x2BA JUMP JUMPDEST STOP JUMPDEST PUSH2 0xB7 PUSH2 0x2BA JUMP JUMPDEST CALLVALUE DUP1 ISZERO PUSH2 0xCC JUMPI PUSH0 DUP1 REVERT JUMPDEST POP PUSH1 0x3 SLOAD PUSH2 0xE0 SWAP1 PUSH1 0x1 PUSH1 0x1 PUSH1 0x80 SHL SUB AND DUP2 JUMP JUMPDEST PUSH1 0x40 MLOAD PUSH1 0x1 PUSH1 0x1 PUSH1 0x80 SHL SUB SWAP1 SWAP2 AND DUP2 MSTORE PUSH1 0x20 ADD JUMPDEST PUSH1 0x40 MLOAD DUP1 SWAP2 SUB SWAP1 RETURN JUMPDEST CALLVALUE DUP1 ISZERO PUSH2 0x108 JUMPI PUSH0 DUP1 REVERT JUMPDEST POP PUSH2 0x14A PUSH2 0x117 CALLDATASIZE PUSH1 0x4 PUSH2 0x92B JUMP JUMPDEST PUSH1 0x6 PUSH1 0x20 MSTORE PUSH0 SWAP1 DUP2 MSTORE PUSH1 0x40 SWAP1 KECCAK256 DUP1 SLOAD PUSH1 0x1 SWAP1 SWAP2 ADD SLOAD PUSH1 0x1 PUSH1 0x1 PUSH1 0xA0 SHL SUB DUP2 AND SWAP1 PUSH1 0x1 PUSH1 0xA0 SHL SWAP1 DIV PUSH1 0x1 PUSH1 0x1 PUSH1 0x40 SHL SUB AND DUP4 JUMP JUMPDEST PUSH1 0x40 DUP1 MLOAD SWAP4 DUP5 MSTORE PUSH1 0x1 PUSH1 0x1 PUSH1 0xA0 SHL SUB SWAP1 SWAP3 AND PUSH1 0x20 DUP5 ADD MSTORE PUSH1 0x1 PUSH1 0x1 PUSH1 0x40 SHL SUB AND SWAP1 DUP3 ADD MSTORE PUSH1 0x60 ADD PUSH2 0xF4 JUMP JUMPDEST CALLVALUE DUP1 ISZERO PUSH2 0x181 JUMPI PUSH0 DUP1 REVERT JUMPDEST POP PUSH1 0x3 SLOAD PUSH2 0x19C SWAP1 PUSH1 0x1 PUSH1 0x80 SHL SWAP1 DIV PUSH1 0x1 PUSH1 0x1 PUSH1 0x40 SHL SUB AND DUP2 JUMP JUMPDEST PUSH1 0x40 MLOAD PUSH1 0x1 PUSH1 0x1 PUSH1 0x40 SHL SUB SWAP1 SWAP2 AND DUP2 MSTORE PUSH1 0x20 ADD PUSH2 0xF4 JUMP JUMPDEST CALLVALUE DUP1 ISZERO PUSH2 0x1BF JUMPI PUSH0 DUP1 REVERT JUMPDEST POP PUSH2 0xB7 PUSH2 0x2F4 JUMP JUMPDEST CALLVALUE DUP1 ISZERO PUSH2 0x1D3 JUMPI PUSH0 DUP1 REVERT JUMPDEST POP PUSH1 0x5 SLOAD PUSH2 0x1E8 SWAP1 PUSH1 0x1 PUSH1 0xA0 SHL SWAP1 DIV PUSH1 0xFF AND DUP2 JUMP JUMPDEST PUSH1 0x40 MLOAD SWAP1 ISZERO ISZERO DUP2 MSTORE PUSH1 0x20 ADD PUSH2 0xF4 JUMP JUMPDEST CALLVALUE DUP1 ISZERO PUSH2 0x203 JUMPI PUSH0 DUP1 REVERT JUMPDEST POP PUSH2 0xB7 PUSH2 0x307 JUMP JUMPDEST CALLVALUE DUP1 ISZERO PUSH2 0x217 JUMPI PUSH0 DUP1 REVERT JUMPDEST POP PUSH0 SLOAD PUSH1 0x1 PUSH1 0x1 PUSH1 0xA0 SHL SUB AND JUMPDEST PUSH1 0x40 MLOAD PUSH1 0x1 PUSH1 0x1 PUSH1 0xA0 SHL SUB SWAP1 SWAP2 AND DUP2 MSTORE PUSH1 0x20 ADD PUSH2 0xF4 JUMP JUMPDEST CALLVALUE DUP1 ISZERO PUSH2 0x247 JUMPI PUSH0 DUP1 REVERT JUMPDEST POP PUSH1 0x5 SLOAD PUSH2 0x224 SWAP1 PUSH1 0x1 PUSH1 0x1 PUSH1 0xA0 SHL SUB AND DUP2 JUMP JUMPDEST CALLVALUE DUP1 ISZERO PUSH2 0x266 JUMPI PUSH0 DUP1 REVERT JUMPDEST POP PUSH2 0x270 PUSH1 0x4 SLOAD DUP2 JUMP JUMPDEST PUSH1 0x40 MLOAD SWAP1 DUP2 MSTORE PUSH1 0x20 ADD PUSH2 0xF4 JUMP JUMPDEST CALLVALUE DUP1 ISZERO PUSH2 0x289 JUMPI PUSH0 DUP1 REVERT JUMPDEST POP PUSH2 0x270 PUSH1 0x2 SLOAD DUP2 JUMP JUMPDEST PUSH2 0xB7 PUSH2 0x43E JUMP JUMPDEST CALLVALUE DUP1 ISZERO PUSH2 0x2A6 JUMPI PUSH0 DUP1 REVERT JUMPDEST POP PUSH2 0xB7 PUSH2 0x2B5 CALLDATASIZE PUSH1 0x4 PUSH2 0x942 JUMP JUMPDEST PUSH2 0x72D JUMP JUMPDEST PUSH0 DUP1 SLOAD PUSH1 0x40 MLOAD PUSH1 0x1 PUSH1 0x1 PUSH1 0xA0 SHL SUB SWAP1 SWAP2 AND SWAP2 CALLVALUE DUP1 ISZERO PUSH2 0x8FC MUL SWAP3 SWAP1 SWAP2 DUP2 DUP2 DUP2 DUP6 DUP9 DUP9 CALL SWAP4 POP POP POP POP ISZERO DUP1 ISZERO PUSH2 0x2F1 JUMPI RETURNDATASIZE PUSH0 DUP1 RETURNDATACOPY RETURNDATASIZE PUSH0 REVERT JUMPDEST POP JUMP JUMPDEST PUSH2 0x2FC PUSH2 0x767 JUMP JUMPDEST PUSH2 0x305 PUSH0 PUSH2 0x793 JUMP JUMPDEST JUMP JUMPDEST PUSH2 0x30F PUSH2 0x767 JUMP JUMPDEST PUSH1 0x3 SLOAD TIMESTAMP PUSH1 0x1 PUSH1 0x80 SHL SWAP1 SWAP2 DIV PUSH1 0x1 PUSH1 0x1 PUSH1 0x40 SHL SUB AND LT PUSH2 0x376 JUMPI PUSH1 0x40 MLOAD PUSH3 0x461BCD PUSH1 0xE5 SHL DUP2 MSTORE PUSH1 0x20 PUSH1 0x4 DUP3 ADD MSTORE PUSH1 0x1B PUSH1 0x24 DUP3 ADD MSTORE PUSH32 0x4C6173742067616D65206973207374696C6C2072756E6E696E67210000000000 PUSH1 0x44 DUP3 ADD MSTORE PUSH1 0x64 ADD JUMPDEST PUSH1 0x40 MLOAD DUP1 SWAP2 SUB SWAP1 REVERT JUMPDEST PUSH1 0x5 DUP1 SLOAD PUSH1 0xFF PUSH1 0xA0 SHL NOT DUP2 AND SWAP1 SWAP2 SSTORE PUSH1 0x1 PUSH1 0x1 PUSH1 0xA0 SHL SUB AND ISZERO PUSH2 0x436 JUMPI PUSH1 0x5 SLOAD PUSH1 0x40 MLOAD ADDRESS BALANCE SWAP2 PUSH1 0x1 PUSH1 0x1 PUSH1 0xA0 SHL SUB AND SWAP1 DUP3 ISZERO PUSH2 0x8FC MUL SWAP1 DUP4 SWAP1 PUSH0 DUP2 DUP2 DUP2 DUP6 DUP9 DUP9 CALL SWAP4 POP POP POP POP ISZERO DUP1 ISZERO PUSH2 0x3CB JUMPI RETURNDATASIZE PUSH0 DUP1 RETURNDATACOPY RETURNDATASIZE PUSH0 REVERT JUMPDEST POP PUSH1 0x5 SLOAD PUSH1 0x3 SLOAD PUSH1 0x4 SLOAD PUSH1 0x40 DUP1 MLOAD SWAP2 DUP3 MSTORE PUSH1 0x20 DUP3 ADD DUP6 SWAP1 MSTORE TIMESTAMP PUSH1 0x1 PUSH1 0x1 PUSH1 0x40 SHL SUB AND DUP3 DUP3 ADD MSTORE MLOAD PUSH1 0x1 PUSH1 0x1 PUSH1 0xA0 SHL SUB SWAP1 SWAP4 AND SWAP3 PUSH1 0x1 PUSH1 0x1 PUSH1 0x80 SHL SUB SWAP1 SWAP3 AND SWAP2 PUSH32 0xE900ABEBB29DA21B2CE54F9BF92ACE3E1F761A0A9A918473570DD7166057BC1F SWAP2 DUP2 SWAP1 SUB PUSH1 0x60 ADD SWAP1 LOG3 POP JUMPDEST PUSH2 0x305 PUSH2 0x7E2 JUMP JUMPDEST PUSH2 0x446 PUSH2 0x901 JUMP JUMPDEST PUSH0 CALLVALUE GT PUSH2 0x4A5 JUMPI PUSH1 0x40 MLOAD PUSH3 0x461BCD PUSH1 0xE5 SHL DUP2 MSTORE PUSH1 0x20 PUSH1 0x4 DUP3 ADD MSTORE PUSH1 0x27 PUSH1 0x24 DUP3 ADD MSTORE PUSH32 0x42696420616D6F756E742073686F756C64206265206772656174657220746861 PUSH1 0x44 DUP3 ADD MSTORE PUSH7 0x6E207A65726F21 PUSH1 0xC8 SHL PUSH1 0x64 DUP3 ADD MSTORE PUSH1 0x84 ADD PUSH2 0x36D JUMP JUMPDEST PUSH1 0x4 SLOAD CALLVALUE GT PUSH2 0x511 JUMPI PUSH1 0x40 MLOAD PUSH3 0x461BCD PUSH1 0xE5 SHL DUP2 MSTORE PUSH1 0x20 PUSH1 0x4 DUP3 ADD MSTORE PUSH1 0x32 PUSH1 0x24 DUP3 ADD MSTORE PUSH32 0x42696420616D6F756E742073686F756C64206265206772656174657220746861 PUSH1 0x44 DUP3 ADD MSTORE PUSH18 0x6E206C6173742062696420616D6F756E7421 PUSH1 0x70 SHL PUSH1 0x64 DUP3 ADD MSTORE PUSH1 0x84 ADD PUSH2 0x36D JUMP JUMPDEST PUSH1 0x3 SLOAD TIMESTAMP PUSH1 0x1 PUSH1 0x80 SHL SWAP1 SWAP2 DIV PUSH1 0x1 PUSH1 0x1 PUSH1 0x40 SHL SUB AND GT PUSH2 0x573 JUMPI PUSH1 0x40 MLOAD PUSH3 0x461BCD PUSH1 0xE5 SHL DUP2 MSTORE PUSH1 0x20 PUSH1 0x4 DUP3 ADD MSTORE PUSH1 0x1C PUSH1 0x24 DUP3 ADD MSTORE PUSH32 0x47616D65206F766572207761697420666F72206E65772067616D652100000000 PUSH1 0x44 DUP3 ADD MSTORE PUSH1 0x64 ADD PUSH2 0x36D JUMP JUMPDEST PUSH1 0x3 DUP1 SLOAD PUSH1 0x1 PUSH1 0x1 PUSH1 0x80 SHL SUB AND SWAP1 PUSH0 PUSH2 0x58B DUP4 PUSH2 0x983 JUMP JUMPDEST DUP3 SLOAD PUSH2 0x100 SWAP3 SWAP1 SWAP3 EXP PUSH1 0x1 PUSH1 0x1 PUSH1 0x80 SHL SUB DUP2 DUP2 MUL NOT SWAP1 SWAP4 AND SWAP2 DUP4 AND MUL OR SWAP1 SWAP2 SSTORE PUSH1 0x3 DUP1 SLOAD DUP3 AND PUSH0 SWAP1 DUP2 MSTORE PUSH1 0x6 PUSH1 0x20 SWAP1 DUP2 MSTORE PUSH1 0x40 DUP1 DUP4 KECCAK256 CALLVALUE SWAP1 DUP2 SWAP1 SSTORE DUP5 SLOAD DUP7 AND DUP5 MSTORE DUP2 DUP5 KECCAK256 PUSH1 0x1 SWAP1 DUP2 ADD DUP1 SLOAD PUSH8 0xFFFFFFFFFFFFFFFF PUSH1 0xA0 SHL NOT AND PUSH1 0x1 PUSH1 0xA0 SHL TIMESTAMP PUSH1 0x1 PUSH1 0x1 PUSH1 0x40 SHL SUB AND SWAP1 DUP2 MUL SWAP2 SWAP1 SWAP2 OR SWAP1 SWAP2 SSTORE DUP7 SLOAD DUP9 AND DUP7 MSTORE SWAP5 DUP4 SWAP1 KECCAK256 ADD DUP1 SLOAD CALLER PUSH1 0x1 PUSH1 0x1 PUSH1 0xA0 SHL SUB NOT SWAP1 SWAP2 AND DUP2 OR SWAP1 SWAP2 SSTORE SWAP5 SLOAD DUP3 MLOAD SWAP2 DUP3 MSTORE SWAP3 DUP2 ADD SWAP4 SWAP1 SWAP4 MSTORE SWAP3 SWAP5 POP SWAP1 SWAP3 AND SWAP2 PUSH32 0x42CED85334596236356FB01034B15F35A1ABBC3C7C51BA1B8D3AD152BFEDA79 SWAP2 ADD PUSH1 0x40 MLOAD DUP1 SWAP2 SUB SWAP1 LOG3 PUSH1 0x3 SLOAD PUSH2 0x67B SWAP1 PUSH1 0x1 PUSH1 0x80 SHL SWAP1 DIV PUSH1 0x1 PUSH1 0x1 PUSH1 0x40 SHL SUB AND PUSH2 0x258 PUSH2 0x9A8 JUMP JUMPDEST PUSH1 0x3 DUP1 SLOAD PUSH1 0x1 PUSH1 0x1 PUSH1 0x40 SHL SUB SWAP3 SWAP1 SWAP3 AND PUSH1 0x1 PUSH1 0x80 SHL MUL PUSH8 0xFFFFFFFFFFFFFFFF PUSH1 0x80 SHL NOT SWAP1 SWAP3 AND SWAP2 SWAP1 SWAP2 OR SWAP1 SSTORE CALLVALUE PUSH1 0x4 DUP2 SWAP1 SSTORE PUSH1 0x5 DUP1 SLOAD PUSH1 0x1 PUSH1 0x1 PUSH1 0xA0 SHL SUB NOT AND CALLER OR SWAP1 SSTORE PUSH1 0x2 SLOAD PUSH0 SWAP2 PUSH1 0x64 SWAP2 PUSH2 0x6D0 SWAP2 PUSH2 0x9CF JUMP JUMPDEST PUSH2 0x6DA SWAP2 SWAP1 PUSH2 0x9EC JUMP JUMPDEST SWAP1 POP PUSH2 0x6ED PUSH0 SLOAD PUSH1 0x1 PUSH1 0x1 PUSH1 0xA0 SHL SUB AND SWAP1 JUMP JUMPDEST PUSH1 0x1 PUSH1 0x1 PUSH1 0xA0 SHL SUB AND PUSH2 0x8FC DUP3 SWAP1 DUP2 ISZERO MUL SWAP1 PUSH1 0x40 MLOAD PUSH0 PUSH1 0x40 MLOAD DUP1 DUP4 SUB DUP2 DUP6 DUP9 DUP9 CALL SWAP4 POP POP POP POP ISZERO DUP1 ISZERO PUSH2 0x722 JUMPI RETURNDATASIZE PUSH0 DUP1 RETURNDATACOPY RETURNDATASIZE PUSH0 REVERT JUMPDEST POP POP PUSH2 0x305 PUSH1 0x1 DUP1 SSTORE JUMP JUMPDEST PUSH2 0x735 PUSH2 0x767 JUMP JUMPDEST PUSH1 0x1 PUSH1 0x1 PUSH1 0xA0 SHL SUB DUP2 AND PUSH2 0x75E JUMPI PUSH1 0x40 MLOAD PUSH4 0x1E4FBDF7 PUSH1 0xE0 SHL DUP2 MSTORE PUSH0 PUSH1 0x4 DUP3 ADD MSTORE PUSH1 0x24 ADD PUSH2 0x36D JUMP JUMPDEST PUSH2 0x2F1 DUP2 PUSH2 0x793 JUMP JUMPDEST PUSH0 SLOAD PUSH1 0x1 PUSH1 0x1 PUSH1 0xA0 SHL SUB AND CALLER EQ PUSH2 0x305 JUMPI PUSH1 0x40 MLOAD PUSH4 0x118CDAA7 PUSH1 0xE0 SHL DUP2 MSTORE CALLER PUSH1 0x4 DUP3 ADD MSTORE PUSH1 0x24 ADD PUSH2 0x36D JUMP JUMPDEST PUSH0 DUP1 SLOAD PUSH1 0x1 PUSH1 0x1 PUSH1 0xA0 SHL SUB DUP4 DUP2 AND PUSH1 0x1 PUSH1 0x1 PUSH1 0xA0 SHL SUB NOT DUP4 AND DUP2 OR DUP5 SSTORE PUSH1 0x40 MLOAD SWAP2 SWAP1 SWAP3 AND SWAP3 DUP4 SWAP2 PUSH32 0x8BE0079C531659141344CD1FD0A4F28419497F9722A3DAAFE3B4186F6B6457E0 SWAP2 SWAP1 LOG3 POP POP JUMP JUMPDEST PUSH1 0x3 SLOAD TIMESTAMP PUSH1 0x1 PUSH1 0x80 SHL SWAP1 SWAP2 DIV PUSH1 0x1 PUSH1 0x1 PUSH1 0x40 SHL SUB AND LT PUSH2 0x844 JUMPI PUSH1 0x40 MLOAD PUSH3 0x461BCD PUSH1 0xE5 SHL DUP2 MSTORE PUSH1 0x20 PUSH1 0x4 DUP3 ADD MSTORE PUSH1 0x1B PUSH1 0x24 DUP3 ADD MSTORE PUSH32 0x4C6173742067616D65206973207374696C6C2072756E6E696E67210000000000 PUSH1 0x44 DUP3 ADD MSTORE PUSH1 0x64 ADD PUSH2 0x36D JUMP JUMPDEST PUSH1 0x5 SLOAD PUSH1 0x1 PUSH1 0xA0 SHL SWAP1 DIV PUSH1 0xFF AND ISZERO PUSH2 0x8AD JUMPI PUSH1 0x40 MLOAD PUSH3 0x461BCD PUSH1 0xE5 SHL DUP2 MSTORE PUSH1 0x20 PUSH1 0x4 DUP3 ADD MSTORE PUSH1 0x26 PUSH1 0x24 DUP3 ADD MSTORE PUSH32 0x4C6173742067616D65206973207374696C6C2077616974696E6720666F722072 PUSH1 0x44 DUP3 ADD MSTORE PUSH6 0x6573756C7421 PUSH1 0xD0 SHL PUSH1 0x64 DUP3 ADD MSTORE PUSH1 0x84 ADD PUSH2 0x36D JUMP JUMPDEST PUSH2 0x8B9 TIMESTAMP PUSH2 0xE10 PUSH2 0xA0B JUMP JUMPDEST PUSH1 0x3 DUP1 SLOAD PUSH1 0x1 PUSH1 0x1 PUSH1 0x40 SHL SUB SWAP3 SWAP1 SWAP3 AND PUSH1 0x1 PUSH1 0x80 SHL MUL PUSH8 0xFFFFFFFFFFFFFFFF PUSH1 0x80 SHL NOT SWAP1 SWAP3 AND SWAP2 SWAP1 SWAP2 OR SWAP1 SSTORE PUSH1 0x5 DUP1 SLOAD PUSH1 0x1 PUSH1 0x1 PUSH1 0xA8 SHL SUB NOT AND PUSH1 0x1 PUSH1 0xA0 SHL OR SWAP1 SSTORE PUSH0 PUSH1 0x4 SSTORE JUMP JUMPDEST PUSH1 0x2 PUSH1 0x1 SLOAD SUB PUSH2 0x924 JUMPI PUSH1 0x40 MLOAD PUSH4 0x3EE5AEB5 PUSH1 0xE0 SHL DUP2 MSTORE PUSH1 0x4 ADD PUSH1 0x40 MLOAD DUP1 SWAP2 SUB SWAP1 REVERT JUMPDEST PUSH1 0x2 PUSH1 0x1 SSTORE JUMP JUMPDEST PUSH0 PUSH1 0x20 DUP3 DUP5 SUB SLT ISZERO PUSH2 0x93B JUMPI PUSH0 DUP1 REVERT JUMPDEST POP CALLDATALOAD SWAP2 SWAP1 POP JUMP JUMPDEST PUSH0 PUSH1 0x20 DUP3 DUP5 SUB SLT ISZERO PUSH2 0x952 JUMPI PUSH0 DUP1 REVERT JUMPDEST DUP2 CALLDATALOAD PUSH1 0x1 PUSH1 0x1 PUSH1 0xA0 SHL SUB DUP2 AND DUP2 EQ PUSH2 0x968 JUMPI PUSH0 DUP1 REVERT JUMPDEST SWAP4 SWAP3 POP POP POP JUMP JUMPDEST PUSH4 0x4E487B71 PUSH1 0xE0 SHL PUSH0 MSTORE PUSH1 0x11 PUSH1 0x4 MSTORE PUSH1 0x24 PUSH0 REVERT JUMPDEST PUSH0 PUSH1 0x1 PUSH1 0x1 PUSH1 0x80 SHL SUB DUP1 DUP4 AND DUP2 DUP2 SUB PUSH2 0x99E JUMPI PUSH2 0x99E PUSH2 0x96F JUMP JUMPDEST PUSH1 0x1 ADD SWAP4 SWAP3 POP POP POP JUMP JUMPDEST PUSH1 0x1 PUSH1 0x1 PUSH1 0x40 SHL SUB DUP2 DUP2 AND DUP4 DUP3 AND ADD SWAP1 DUP1 DUP3 GT ISZERO PUSH2 0x9C8 JUMPI PUSH2 0x9C8 PUSH2 0x96F JUMP JUMPDEST POP SWAP3 SWAP2 POP POP JUMP JUMPDEST DUP1 DUP3 MUL DUP2 ISZERO DUP3 DUP3 DIV DUP5 EQ OR PUSH2 0x9E6 JUMPI PUSH2 0x9E6 PUSH2 0x96F JUMP JUMPDEST SWAP3 SWAP2 POP POP JUMP JUMPDEST PUSH0 DUP3 PUSH2 0xA06 JUMPI PUSH4 0x4E487B71 PUSH1 0xE0 SHL PUSH0 MSTORE PUSH1 0x12 PUSH1 0x4 MSTORE PUSH1 0x24 PUSH0 REVERT JUMPDEST POP DIV SWAP1 JUMP JUMPDEST DUP1 DUP3 ADD DUP1 DUP3 GT ISZERO PUSH2 0x9E6 JUMPI PUSH2 0x9E6 PUSH2 0x96F JUMP INVALID LOG2 PUSH5 0x6970667358 0x22 SLT KECCAK256 SHL 0xDC ORIGIN 0x1E 0x2F 0xC4 REVERT 0xC2 LOG2 0xB9 TLOAD 0xE9 SWAP14 0xD3 PUSH17 0xA0B25EAB9D37BAA73EBCA1CEDA6CA91276 PUSH5 0x736F6C6343 STOP ADDMOD NOT STOP CALLER "
				},
				"gasEstimates": {
					"creation": {
						"codeDepositCost": "528800",
						"executionCost": "177034",
						"totalCost": "705834"
					},
					"external": {
						"": "infinite",
						"bidCounter()": "2326",
						"bids(uint256)": "4707",
						"commission()": "2360",
						"declareResult()": "infinite",
						"gameEndTime()": "2398",
						"gameStatus()": "2415",
						"highestBid()": "2338",
						"highestBidder()": "2358",
						"owner()": "2318",
						"placeBid()": "infinite",
						"renounceOwnership()": "infinite",
						"transferOwnership(address)": "28404"
					},
					"internal": {
						"fundsTransferToOwner()": "infinite",
						"startGame()": "infinite"
					}
				},
				"methodIdentifiers": {
					"bidCounter()": "03f69354",
					"bids(uint256)": "4423c5f1",
					"commission()": "e1489191",
					"declareResult()": "8574c296",
					"gameEndTime()": "44d9bc5f",
					"gameStatus()": "722fed7e",
					"highestBid()": "d57bde79",
					"highestBidder()": "91f90157",
					"owner()": "8da5cb5b",
					"placeBid()": "ecfc7ecc",
					"renounceOwnership()": "715018a6",
					"transferOwnership(address)": "f2fde38b"
				}
			},
			"storageLayout": {
				"storage": [
					{
						"astId": 8,
						"contract": "contracts/BiddingWar.sol:BiddingWar",
						"label": "_owner",
						"offset": 0,
						"slot": "0",
						"type": "t_address"
					},
					{
						"astId": 188,
						"contract": "contracts/BiddingWar.sol:BiddingWar",
						"label": "_status",
						"offset": 0,
						"slot": "1",
						"type": "t_uint256"
					},
					{
						"astId": 257,
						"contract": "contracts/BiddingWar.sol:BiddingWar",
						"label": "commission",
						"offset": 0,
						"slot": "2",
						"type": "t_uint256"
					},
					{
						"astId": 260,
						"contract": "contracts/BiddingWar.sol:BiddingWar",
						"label": "bidCounter",
						"offset": 0,
						"slot": "3",
						"type": "t_uint128"
					},
					{
						"astId": 262,
						"contract": "contracts/BiddingWar.sol:BiddingWar",
						"label": "gameEndTime",
						"offset": 16,
						"slot": "3",
						"type": "t_uint64"
					},
					{
						"astId": 264,
						"contract": "contracts/BiddingWar.sol:BiddingWar",
						"label": "highestBid",
						"offset": 0,
						"slot": "4",
						"type": "t_uint256"
					},
					{
						"astId": 266,
						"contract": "contracts/BiddingWar.sol:BiddingWar",
						"label": "highestBidder",
						"offset": 0,
						"slot": "5",
						"type": "t_address"
					},
					{
						"astId": 269,
						"contract": "contracts/BiddingWar.sol:BiddingWar",
						"label": "gameStatus",
						"offset": 20,
						"slot": "5",
						"type": "t_bool"
					},
					{
						"astId": 281,
						"contract": "contracts/BiddingWar.sol:BiddingWar",
						"label": "bids",
						"offset": 0,
						"slot": "6",
						"type": "t_mapping(t_uint256,t_struct(Bid)276_storage)"
					}
				],
				"types": {
					"t_address": {
						"encoding": "inplace",
						"label": "address",
						"numberOfBytes": "20"
					},
					"t_bool": {
						"encoding": "inplace",
						"label": "bool",
						"numberOfBytes": "1"
					},
					"t_mapping(t_uint256,t_struct(Bid)276_storage)": {
						"encoding": "mapping",
						"key": "t_uint256",
						"label": "mapping(uint256 => struct BiddingWar.Bid)",
						"numberOfBytes": "32",
						"value": "t_struct(Bid)276_storage"
					},
					"t_struct(Bid)276_storage": {
						"encoding": "inplace",
						"label": "struct BiddingWar.Bid",
						"members": [
							{
								"astId": 271,
								"contract": "contracts/BiddingWar.sol:BiddingWar",
								"label": "amount",
								"offset": 0,
								"slot": "0",
								"type": "t_uint256"
							},
							{
								"astId": 273,
								"contract": "contracts/BiddingWar.sol:BiddingWar",
								"label": "user",
								"offset": 0,
								"slot": "1",
								"type": "t_address"
							},
							{
								"astId": 275,
								"contract": "contracts/BiddingWar.sol:BiddingWar",
								"label": "when",
								"offset": 20,
								"slot": "1",
								"type": "t_uint64"
							}
						],
						"numberOfBytes": "64"
					},
					"t_uint128": {
						"encoding": "inplace",
						"label": "uint128",
						"numberOfBytes": "16"
					},
					"t_uint256": {
						"encoding": "inplace",
						"label": "uint256",
						"numberOfBytes": "32"
					},
					"t_uint64": {
						"encoding": "inplace",
						"label": "uint64",
						"numberOfBytes": "8"
					}
				}
			},
			"userdoc": {
				"kind": "user",
				"methods": {
					"declareResult()": {
						"notice": "declare result and restart the game"
					},
					"placeBid()": {
						"notice": "place the bid"
					}
				},
				"version": 1
			}
		}
	}
}